{
  "abi": [
    {
      "inputs": [
        {
          "internalType": "address",
          "name": "_token",
          "type": "address"
        },
        {
          "internalType": "address",
          "name": "_lendingPoolAddress",
          "type": "address"
        },
        {
          "internalType": "uint256",
          "name": "_matchStartBlock",
          "type": "uint256"
        },
        {
          "internalType": "uint256",
          "name": "_matchFinishBlock",
          "type": "uint256"
        }
      ],
      "stateMutability": "nonpayable",
      "type": "constructor"
    },
    {
      "anonymous": false,
      "inputs": [
        {
          "indexed": true,
          "internalType": "address",
          "name": "previousOwner",
          "type": "address"
        },
        {
          "indexed": true,
          "internalType": "address",
          "name": "newOwner",
          "type": "address"
        }
      ],
      "name": "OwnershipTransferred",
      "type": "event"
    },
    {
      "inputs": [
        {
          "internalType": "uint256",
          "name": "",
          "type": "uint256"
        }
      ],
      "name": "awayBetPlacer",
      "outputs": [
        {
          "internalType": "address",
          "name": "",
          "type": "address"
        }
      ],
      "stateMutability": "view",
      "type": "function"
    },
    {
      "inputs": [],
      "name": "awayBets",
      "outputs": [
        {
          "internalType": "uint256",
          "name": "",
          "type": "uint256"
        }
      ],
      "stateMutability": "view",
      "type": "function"
    },
    {
      "inputs": [
        {
          "internalType": "uint256",
          "name": "",
          "type": "uint256"
        }
      ],
      "name": "awayPointsAfterBet",
      "outputs": [
        {
          "internalType": "uint256",
          "name": "",
          "type": "uint256"
        }
      ],
      "stateMutability": "view",
      "type": "function"
    },
    {
      "inputs": [],
      "name": "awayPointsTrackers",
      "outputs": [
        {
          "internalType": "uint256",
          "name": "",
          "type": "uint256"
        }
      ],
      "stateMutability": "view",
      "type": "function"
    },
    {
      "inputs": [
        {
          "internalType": "uint256",
          "name": "",
          "type": "uint256"
        }
      ],
      "name": "drawBetPlacer",
      "outputs": [
        {
          "internalType": "address",
          "name": "",
          "type": "address"
        }
      ],
      "stateMutability": "view",
      "type": "function"
    },
    {
      "inputs": [],
      "name": "drawBets",
      "outputs": [
        {
          "internalType": "uint256",
          "name": "",
          "type": "uint256"
        }
      ],
      "stateMutability": "view",
      "type": "function"
    },
    {
      "inputs": [
        {
          "internalType": "uint256",
          "name": "",
          "type": "uint256"
        }
      ],
      "name": "drawPointsAfterBet",
      "outputs": [
        {
          "internalType": "uint256",
          "name": "",
          "type": "uint256"
        }
      ],
      "stateMutability": "view",
      "type": "function"
    },
    {
      "inputs": [],
      "name": "drawPointsTrackers",
      "outputs": [
        {
          "internalType": "uint256",
          "name": "",
          "type": "uint256"
        }
      ],
      "stateMutability": "view",
      "type": "function"
    },
    {
      "inputs": [
        {
          "internalType": "uint256",
          "name": "",
          "type": "uint256"
        }
      ],
      "name": "homeBetPlacer",
      "outputs": [
        {
          "internalType": "address",
          "name": "",
          "type": "address"
        }
      ],
      "stateMutability": "view",
      "type": "function"
    },
    {
      "inputs": [],
      "name": "homeBets",
      "outputs": [
        {
          "internalType": "uint256",
          "name": "",
          "type": "uint256"
        }
      ],
      "stateMutability": "view",
      "type": "function"
    },
    {
      "inputs": [
        {
          "internalType": "uint256",
          "name": "",
          "type": "uint256"
        }
      ],
      "name": "homePointsAfterBet",
      "outputs": [
        {
          "internalType": "uint256",
          "name": "",
          "type": "uint256"
        }
      ],
      "stateMutability": "view",
      "type": "function"
    },
    {
      "inputs": [],
      "name": "homePointsTrackers",
      "outputs": [
        {
          "internalType": "uint256",
          "name": "",
          "type": "uint256"
        }
      ],
      "stateMutability": "view",
      "type": "function"
    },
    {
      "inputs": [],
      "name": "lendingPool",
      "outputs": [
        {
          "internalType": "contract ILendingPool",
          "name": "",
          "type": "address"
        }
      ],
      "stateMutability": "view",
      "type": "function"
    },
    {
      "inputs": [],
      "name": "matchFinishBlock",
      "outputs": [
        {
          "internalType": "uint256",
          "name": "",
          "type": "uint256"
        }
      ],
      "stateMutability": "view",
      "type": "function"
    },
    {
      "inputs": [],
      "name": "matchStartBlock",
      "outputs": [
        {
          "internalType": "uint256",
          "name": "",
          "type": "uint256"
        }
      ],
      "stateMutability": "view",
      "type": "function"
    },
    {
      "inputs": [],
      "name": "owner",
      "outputs": [
        {
          "internalType": "address",
          "name": "",
          "type": "address"
        }
      ],
      "stateMutability": "view",
      "type": "function"
    },
    {
      "inputs": [
        {
          "internalType": "enum BenqiLossless.BetSide",
          "name": "betSide",
          "type": "uint8"
        },
        {
          "internalType": "uint256",
          "name": "amount",
          "type": "uint256"
        }
      ],
      "name": "placeBet",
      "outputs": [],
      "stateMutability": "payable",
      "type": "function"
    },
    {
      "inputs": [
        {
          "internalType": "address",
          "name": "",
          "type": "address"
        }
      ],
      "name": "playerAwayPoints",
      "outputs": [
        {
          "internalType": "uint256",
          "name": "",
          "type": "uint256"
        }
      ],
      "stateMutability": "view",
      "type": "function"
    },
    {
      "inputs": [
        {
          "internalType": "address",
          "name": "",
          "type": "address"
        }
      ],
      "name": "playerBalance",
      "outputs": [
        {
          "internalType": "uint256",
          "name": "",
          "type": "uint256"
        }
      ],
      "stateMutability": "view",
      "type": "function"
    },
    {
      "inputs": [
        {
          "internalType": "address",
          "name": "",
          "type": "address"
        }
      ],
      "name": "playerDrawPoints",
      "outputs": [
        {
          "internalType": "uint256",
          "name": "",
          "type": "uint256"
        }
      ],
      "stateMutability": "view",
      "type": "function"
    },
    {
      "inputs": [
        {
          "internalType": "address",
          "name": "",
          "type": "address"
        }
      ],
      "name": "playerHomePoints",
      "outputs": [
        {
          "internalType": "uint256",
          "name": "",
          "type": "uint256"
        }
      ],
      "stateMutability": "view",
      "type": "function"
    },
    {
      "inputs": [],
      "name": "renounceOwnership",
      "outputs": [],
      "stateMutability": "nonpayable",
      "type": "function"
    },
    {
      "inputs": [
        {
          "internalType": "enum BenqiLossless.BetSide",
          "name": "_winningSide",
          "type": "uint8"
        }
      ],
      "name": "setMatchWinnerAndWithdrawFromPool",
      "outputs": [],
      "stateMutability": "nonpayable",
      "type": "function"
    },
    {
      "inputs": [
        {
          "internalType": "uint256",
          "name": "amount",
          "type": "uint256"
        }
      ],
      "name": "sponsor",
      "outputs": [],
      "stateMutability": "payable",
      "type": "function"
    },
    {
      "inputs": [],
      "name": "sponsorDeposit",
      "outputs": [
        {
          "internalType": "uint256",
          "name": "",
          "type": "uint256"
        }
      ],
      "stateMutability": "view",
      "type": "function"
    },
    {
      "inputs": [],
      "name": "status",
      "outputs": [
        {
          "internalType": "enum Lossless.MatchStatus",
          "name": "",
          "type": "uint8"
        }
      ],
      "stateMutability": "view",
      "type": "function"
    },
    {
      "inputs": [],
      "name": "token",
      "outputs": [
        {
          "internalType": "address",
          "name": "",
          "type": "address"
        }
      ],
      "stateMutability": "view",
      "type": "function"
    },
    {
      "inputs": [],
      "name": "totalDeposits",
      "outputs": [
        {
          "internalType": "uint256",
          "name": "",
          "type": "uint256"
        }
      ],
      "stateMutability": "view",
      "type": "function"
    },
    {
      "inputs": [
        {
          "internalType": "address",
          "name": "newOwner",
          "type": "address"
        }
      ],
      "name": "transferOwnership",
      "outputs": [],
      "stateMutability": "nonpayable",
      "type": "function"
    },
    {
      "inputs": [],
      "name": "winner",
      "outputs": [
        {
          "internalType": "address",
          "name": "",
          "type": "address"
        }
      ],
      "stateMutability": "view",
      "type": "function"
    },
    {
      "inputs": [],
      "name": "winningSide",
      "outputs": [
        {
          "internalType": "enum BenqiLossless.BetSide",
          "name": "",
          "type": "uint8"
        }
      ],
      "stateMutability": "view",
      "type": "function"
    },
    {
      "inputs": [],
      "name": "withdraw",
      "outputs": [],
      "stateMutability": "nonpayable",
      "type": "function"
    }
  ],
  "bytecode": "608060405234801561001057600080fd5b506040516117be3803806117be8339818101604052608081101561003357600080fd5b508051602082015160408301516060909301519192909181816000610056610109565b600080546001600160a01b0319166001600160a01b0383169081178255604051929350917f8be0079c531659141344cd1fd0a4f28419497f9722a3daafe3b4186f6b6457e0908290a3506000805460ff60a01b191690556001919091556002555050601480546001600160a01b03199081166001600160a01b039485161790915560178054610100600160a81b03191661010093909416929092029290921760ff1916905560158054909116905561010d565b3390565b6116a28061011c6000396000f3fe6080604052600436106101e35760003560e01c8063b168ba4b11610102578063d9d5216011610095578063e8eaca7511610064578063e8eaca75146105ac578063f2fde38b146105c1578063fbf06338146105f4578063fc0c546a14610619576101e3565b8063d9d5216014610532578063dcb3b30e1461055c578063dfbf53ae14610582578063e11f3f7714610597576101e3565b8063c003aef3116100d1578063c003aef3146104c0578063c69de224146104d5578063c734f0c3146104ea578063c7b8cad5146104ff576101e3565b8063b168ba4b14610431578063b3db3ced14610446578063b6cce5e214610470578063b810fe8d1461048d576101e3565b8063788e26e71161017a57806391c54ca41161014957806391c54ca41461039e578063a59a9973146103c8578063aa236df4146103dd578063ad9ed66e14610407576101e3565b8063788e26e71461031957806379db8a131461032e5780637d882097146103585780638da5cb5b1461036d576101e3565b80633ccfd60b116101b65780633ccfd60b1461028d5780634e33f83b146102a4578063645a0047146102d7578063715018a614610304576101e3565b80630873d9ec146101e857806309126f081461020f578063200d2ed21461024257806336201e5314610278575b600080fd5b3480156101f457600080fd5b506101fd61062e565b60408051918252519081900360200190f35b34801561021b57600080fd5b506101fd6004803603602081101561023257600080fd5b50356001600160a01b0316610634565b34801561024e57600080fd5b50610257610646565b6040518082600181111561026757fe5b815260200191505060405180910390f35b34801561028457600080fd5b506101fd610656565b34801561029957600080fd5b506102a261065c565b005b3480156102b057600080fd5b506101fd600480360360208110156102c757600080fd5b50356001600160a01b031661071e565b3480156102e357600080fd5b506102a2600480360360208110156102fa57600080fd5b503560ff16610730565b34801561031057600080fd5b506102a26108da565b34801561032557600080fd5b506101fd610998565b34801561033a57600080fd5b506101fd6004803603602081101561035157600080fd5b503561099e565b34801561036457600080fd5b506101fd6109bc565b34801561037957600080fd5b506103826109c2565b604080516001600160a01b039092168252519081900360200190f35b3480156103aa57600080fd5b50610382600480360360208110156103c157600080fd5b50356109d2565b3480156103d457600080fd5b506103826109ed565b3480156103e957600080fd5b506103826004803603602081101561040057600080fd5b5035610a01565b34801561041357600080fd5b506101fd6004803603602081101561042a57600080fd5b5035610a1c565b34801561043d57600080fd5b506101fd610a29565b34801561045257600080fd5b506101fd6004803603602081101561046957600080fd5b5035610a2f565b6102a26004803603602081101561048657600080fd5b5035610a3c565b34801561049957600080fd5b506101fd600480360360208110156104b057600080fd5b50356001600160a01b0316610bda565b3480156104cc57600080fd5b506101fd610bec565b3480156104e157600080fd5b506101fd610bf2565b3480156104f657600080fd5b506101fd610bf8565b34801561050b57600080fd5b506101fd6004803603602081101561052257600080fd5b50356001600160a01b0316610bfe565b34801561053e57600080fd5b506103826004803603602081101561055557600080fd5b5035610c10565b6102a26004803603604081101561057257600080fd5b5060ff8135169060200135610c2b565b34801561058e57600080fd5b50610382610e2b565b3480156105a357600080fd5b506101fd610e3a565b3480156105b857600080fd5b506101fd610e40565b3480156105cd57600080fd5b506102a2600480360360208110156105e457600080fd5b50356001600160a01b0316610e46565b34801561060057600080fd5b50610609610f5a565b6040518082600381111561026757fe5b34801561062557600080fd5b50610382610f63565b60085481565b60116020526000908152604090205481565b600054600160a01b900460ff1681565b60045481565b6001600054600160a01b900460ff16600181111561067657fe5b146106b9576040805162461bcd60e51b815260206004820152600e60248201526d13585d18da081b9bdd081c185a5960921b604482015290519081900360640190fd5b3360009081526010602052604090205461070c576040805162461bcd60e51b815260206004820152600f60248201526e62616c616e6365206973207a65726f60881b604482015290519081900360640190fd5b33600090815260106020526040812055565b60106020526000908152604090205481565b610738610f72565b6001600160a01b03166107496109c2565b6001600160a01b0316146107a4576040805162461bcd60e51b815260206004820181905260248201527f4f776e61626c653a2063616c6c6572206973206e6f7420746865206f776e6572604482015290519081900360640190fd5b8060018160038111156107b357fe5b14806107ca575060038160038111156107c857fe5b145b806107e0575060028160038111156107de57fe5b145b610831576040805162461bcd60e51b815260206004820152601c60248201527f696e76616c696420617267756d656e7420666f72206265737469646500000000604482015290519081900360640190fd5b60008054600160a01b900460ff16600181111561084a57fe5b14610895576040805162461bcd60e51b8152602060048201526016602482015275086c2dce840e6cae8e8d8ca40e8d0d2e640dac2e8c6d60531b604482015290519081900360640190fd5b6000805460ff60a01b1916600160a01b1790556017805483919060ff191660018360038111156108c157fe5b02179055506108ce610f76565b6108d6611021565b5050565b6108e2610f72565b6001600160a01b03166108f36109c2565b6001600160a01b03161461094e576040805162461bcd60e51b815260206004820181905260248201527f4f776e61626c653a2063616c6c6572206973206e6f7420746865206f776e6572604482015290519081900360640190fd5b600080546040516001600160a01b03909116907f8be0079c531659141344cd1fd0a4f28419497f9722a3daafe3b4186f6b6457e0908390a3600080546001600160a01b0319169055565b60165481565b600b81815481106109ab57fe5b600091825260209091200154905081565b60035481565b6000546001600160a01b03165b90565b600f602052600090815260409020546001600160a01b031681565b60175461010090046001600160a01b031681565b600e602052600090815260409020546001600160a01b031681565b600a81815481106109ab57fe5b60015481565b600c81815481106109ab57fe5b60008054600160a01b900460ff166001811115610a5557fe5b14610a98576040805162461bcd60e51b815260206004820152600e60248201526d26b0ba31b4103737ba1037b832b760911b604482015290519081900360640190fd5b6001544310610ae3576040805162461bcd60e51b815260206004820152601260248201527143616e7420706c61636520626574206e6f7760701b604482015290519081900360640190fd5b60008111610b31576040805162461bcd60e51b815260206004820152601660248201527530b6b7bab73a1036bab9ba103132903837b9b4ba34b360511b604482015290519081900360640190fd5b6017546014546040805163e8eda9df60e01b81526001600160a01b0392831660048201526024810185905230604482015260006064820181905291516101009094049092169263e8eda9df92608480820193929182900301818387803b158015610b9a57600080fd5b505af1158015610bae573d6000803e3d6000fd5b505060038054840190555050601680548201905533600090815260106020526040902080549091019055565b60136020526000908152604090205481565b60065481565b60095481565b60025481565b60126020526000908152604090205481565b600d602052600090815260409020546001600160a01b031681565b60008054600160a01b900460ff166001811115610c4457fe5b14610c87576040805162461bcd60e51b815260206004820152600e60248201526d26b0ba31b4103737ba1037b832b760911b604482015290519081900360640190fd5b6001544310610cd2576040805162461bcd60e51b815260206004820152601260248201527143616e7420706c61636520626574206e6f7760701b604482015290519081900360640190fd5b816001816003811115610ce157fe5b1480610cf857506003816003811115610cf657fe5b145b80610d0e57506002816003811115610d0c57fe5b145b610d5f576040805162461bcd60e51b815260206004820152601c60248201527f696e76616c696420617267756d656e7420666f72206265737469646500000000604482015290519081900360640190fd5b60008211610dad576040805162461bcd60e51b815260206004820152601660248201527530b6b7bab73a1036bab9ba103132903837b9b4ba34b360511b604482015290519081900360640190fd5b6001836003811115610dbb57fe5b1415610dcf57610dca826110c4565b610e09565b6003836003811115610ddd57fe5b1415610dec57610dca8261114d565b6002836003811115610dfa57fe5b1415610e0957610e09826111d6565b5060038054820190553360009081526010602052604090208054909101905550565b6015546001600160a01b031681565b60055481565b60075481565b610e4e610f72565b6001600160a01b0316610e5f6109c2565b6001600160a01b031614610eba576040805162461bcd60e51b815260206004820181905260248201527f4f776e61626c653a2063616c6c6572206973206e6f7420746865206f776e6572604482015290519081900360640190fd5b6001600160a01b038116610eff5760405162461bcd60e51b81526004018080602001828103825260268152602001806116476026913960400191505060405180910390fd5b600080546040516001600160a01b03808516939216917f8be0079c531659141344cd1fd0a4f28419497f9722a3daafe3b4186f6b6457e091a3600080546001600160a01b0319166001600160a01b0392909216919091179055565b60175460ff1681565b6014546001600160a01b031681565b3390565b600160175460ff166003811115610f8957fe5b1415610fbc57610f97611261565b601580546001600160a01b0319166001600160a01b039290921691909117905561101f565b600360175460ff166003811115610fcf57fe5b1415610fdd57610f97611393565b600260175460ff166003811115610ff057fe5b141561101f57610ffe6114c5565b601580546001600160a01b0319166001600160a01b03929092169190911790555b565b600354601454604080516370a0823160e01b81523060048201529051600093926001600160a01b0316916370a08231916024808301926020929190829003018186803b15801561107057600080fd5b505afa158015611084573d6000803e3d6000fd5b505050506040513d602081101561109a57600080fd5b50516015546001600160a01b03166000908152601060205260409020805492909103909101905550565b60018054336000818152601160209081526040808320805443909603979097029485019096556004805490940193849055600a80548087019091557fc65a7bb8d6351c1cf70c95a316cc6a92839c986682d98bc35f958f4883f9d2a80193909355600780548252600d9093529390932080546001600160a01b0319169093179092558154019055565b60018054336000818152601360209081526040808320805443909603979097029485019096556006805490940193849055600c80548087019091557fdf6966c971051c3d54ec59162606531493a51404a002842f56009d7e5cf4a8c70193909355600980548252600f9093529390932080546001600160a01b0319169093179092558154019055565b60018054336000818152601260209081526040808320805443909603979097029485019096556005805490940193849055600b80548087019091557f0175b7a638427703f0dbe7bb9bbf987a2551717b34e79f33b5b1008d1fa01db901939093556007548152600e90925292902080546001600160a01b031916909217909155600880549091019055565b60008061126c6115f7565b9050600454818161127957fe5b069050600a60008154811061128a57fe5b90600052602060002001548110156112d757505060008052600d6020527f81955a0a11e65eac625c29e8882660bae4e165a75d72780094acae8ece9a29ee546001600160a01b03166109cf565b600a546000190160005b81811161137457600060028284030482019050600a818154811061130157fe5b906000526020600020015484101561131e5760018103925061136e565b600a818154811061132b57fe5b90600052602060002001548411156113485780600101915061136e565b6001016000908152600d60205260409020546001600160a01b031693506109cf92505050565b506112e1565b6000908152600d60205260409020546001600160a01b03169250505090565b60008061139e6115f7565b905060065481816113ab57fe5b069050600c6000815481106113bc57fe5b906000526020600020015481101561140957505060008052600f6020527ff4803e074bd026baaf6ed2e288c9515f68c72fb7216eebdd7cae1718a53ec375546001600160a01b03166109cf565b600c546000190160005b8181116114a657600060028284030482019050600c818154811061143357fe5b9060005260206000200154841015611450576001810392506114a0565b600c818154811061145d57fe5b906000526020600020015484111561147a578060010191506114a0565b6001016000908152600f60205260409020546001600160a01b031693506109cf92505050565b50611413565b6000908152600f60205260409020546001600160a01b03169250505090565b6000806114d06115f7565b905060055481816114dd57fe5b069050600b6000815481106114ee57fe5b906000526020600020015481101561153b57505060008052600e6020527fe710864318d4a32f37d6ce54cb3fadbef648dd12d8dbdf53973564d56b7f881c546001600160a01b03166109cf565b600b546000190160005b8181116115d857600060028284030482019050600b818154811061156557fe5b9060005260206000200154841015611582576001810392506115d2565b600b818154811061158f57fe5b90600052602060002001548411156115ac578060010191506115d2565b6001016000908152600e60205260409020546001600160a01b031693506109cf92505050565b50611545565b6000908152600e60205260409020546001600160a01b03169250505090565b600354600154600254604080514460208083019190915242828401526060820195909552608081019390935260a0808401929092528051808403909201825260c090920190915280519101209056fe4f776e61626c653a206e6577206f776e657220697320746865207a65726f2061646472657373a264697066735822122047c6c527f81b4a232f03e94bec63f0ecfeb5cee5fc545582892446071255f7b164736f6c634300060c0033",
  "bytecodeSha1": "cc59592cf155796aa90f8184e0e26e9b2b00ba57",
  "compiler": {
    "evm_version": "istanbul",
    "optimizer": {
      "enabled": true,
      "runs": 200
    },
    "version": "0.6.12+commit.27d51765"
  },
  "contractName": "BenqiLossless",
  "language": "Solidity",
  "natspec": {
    "kind": "dev",
    "methods": {
      "awayBetPlacer(uint256)": {
        "notice": "tracks which playerr placed away bet number i"
      },
      "awayBets()": {
        "notice": "number of away bets"
      },
      "awayPointsAfterBet(uint256)": {
        "notice": "tracks total points earned by player betting away after bet number i, used for computing winner"
      },
      "awayPointsTrackers()": {
        "notice": "total points earned by players betting away"
      },
      "drawBetPlacer(uint256)": {
        "notice": "tracks which playerr placed draw bet number i"
      },
      "drawBets()": {
        "notice": "number of draw bets"
      },
      "drawPointsAfterBet(uint256)": {
        "notice": "tracks total points earned by player betting draw after bet number i, used for computing winner"
      },
      "drawPointsTrackers()": {
        "notice": "total points earned by players betting draw"
      },
      "homeBetPlacer(uint256)": {
        "notice": "tracks which playerr placed home bet number i"
      },
      "homeBets()": {
        "notice": "number of home bets"
      },
      "homePointsAfterBet(uint256)": {
        "notice": "tracks total points earned by player betting home after bet number i, used for computing winner"
      },
      "homePointsTrackers()": {
        "notice": "total points earned by players betting home"
      },
      "lendingPool()": {
        "notice": "Aave Lending pool to deposit tokens"
      },
      "matchFinishBlock()": {
        "notice": "block after which game should have ended"
      },
      "matchStartBlock()": {
        "notice": "block at which game is supposed to start"
      },
      "owner()": {
        "details": "Returns the address of the current owner."
      },
      "playerAwayPoints(address)": {
        "notice": "tracks players away points"
      },
      "playerBalance(address)": {
        "notice": "tracks players deposits"
      },
      "playerDrawPoints(address)": {
        "notice": "tracks players draw points"
      },
      "playerHomePoints(address)": {
        "notice": "tracks players home points"
      },
      "renounceOwnership()": {
        "details": "Leaves the contract without owner. It will not be possible to call `onlyOwner` functions anymore. Can only be called by the current owner. NOTE: Renouncing ownership will leave the contract without an owner, thereby removing any functionality that is only available to the owner."
      },
      "totalDeposits()": {
        "notice": "total amount deposited in the contract"
      },
      "transferOwnership(address)": {
        "details": "Transfers ownership of the contract to a new account (`newOwner`). Can only be called by the current owner."
      }
    },
    "version": 1
  },
  "opcodes": "PUSH1 0x80 PUSH1 0x40 MSTORE PUSH1 0x4 CALLDATASIZE LT PUSH2 0x1E3 JUMPI PUSH1 0x0 CALLDATALOAD PUSH1 0xE0 SHR DUP1 PUSH4 0xB168BA4B GT PUSH2 0x102 JUMPI DUP1 PUSH4 0xD9D52160 GT PUSH2 0x95 JUMPI DUP1 PUSH4 0xE8EACA75 GT PUSH2 0x64 JUMPI DUP1 PUSH4 0xE8EACA75 EQ PUSH2 0x5AC JUMPI DUP1 PUSH4 0xF2FDE38B EQ PUSH2 0x5C1 JUMPI DUP1 PUSH4 0xFBF06338 EQ PUSH2 0x5F4 JUMPI DUP1 PUSH4 0xFC0C546A EQ PUSH2 0x619 JUMPI PUSH2 0x1E3 JUMP JUMPDEST DUP1 PUSH4 0xD9D52160 EQ PUSH2 0x532 JUMPI DUP1 PUSH4 0xDCB3B30E EQ PUSH2 0x55C JUMPI DUP1 PUSH4 0xDFBF53AE EQ PUSH2 0x582 JUMPI DUP1 PUSH4 0xE11F3F77 EQ PUSH2 0x597 JUMPI PUSH2 0x1E3 JUMP JUMPDEST DUP1 PUSH4 0xC003AEF3 GT PUSH2 0xD1 JUMPI DUP1 PUSH4 0xC003AEF3 EQ PUSH2 0x4C0 JUMPI DUP1 PUSH4 0xC69DE224 EQ PUSH2 0x4D5 JUMPI DUP1 PUSH4 0xC734F0C3 EQ PUSH2 0x4EA JUMPI DUP1 PUSH4 0xC7B8CAD5 EQ PUSH2 0x4FF JUMPI PUSH2 0x1E3 JUMP JUMPDEST DUP1 PUSH4 0xB168BA4B EQ PUSH2 0x431 JUMPI DUP1 PUSH4 0xB3DB3CED EQ PUSH2 0x446 JUMPI DUP1 PUSH4 0xB6CCE5E2 EQ PUSH2 0x470 JUMPI DUP1 PUSH4 0xB810FE8D EQ PUSH2 0x48D JUMPI PUSH2 0x1E3 JUMP JUMPDEST DUP1 PUSH4 0x788E26E7 GT PUSH2 0x17A JUMPI DUP1 PUSH4 0x91C54CA4 GT PUSH2 0x149 JUMPI DUP1 PUSH4 0x91C54CA4 EQ PUSH2 0x39E JUMPI DUP1 PUSH4 0xA59A9973 EQ PUSH2 0x3C8 JUMPI DUP1 PUSH4 0xAA236DF4 EQ PUSH2 0x3DD JUMPI DUP1 PUSH4 0xAD9ED66E EQ PUSH2 0x407 JUMPI PUSH2 0x1E3 JUMP JUMPDEST DUP1 PUSH4 0x788E26E7 EQ PUSH2 0x319 JUMPI DUP1 PUSH4 0x79DB8A13 EQ PUSH2 0x32E JUMPI DUP1 PUSH4 0x7D882097 EQ PUSH2 0x358 JUMPI DUP1 PUSH4 0x8DA5CB5B EQ PUSH2 0x36D JUMPI PUSH2 0x1E3 JUMP JUMPDEST DUP1 PUSH4 0x3CCFD60B GT PUSH2 0x1B6 JUMPI DUP1 PUSH4 0x3CCFD60B EQ PUSH2 0x28D JUMPI DUP1 PUSH4 0x4E33F83B EQ PUSH2 0x2A4 JUMPI DUP1 PUSH4 0x645A0047 EQ PUSH2 0x2D7 JUMPI DUP1 PUSH4 0x715018A6 EQ PUSH2 0x304 JUMPI PUSH2 0x1E3 JUMP JUMPDEST DUP1 PUSH4 0x873D9EC EQ PUSH2 0x1E8 JUMPI DUP1 PUSH4 0x9126F08 EQ PUSH2 0x20F JUMPI DUP1 PUSH4 0x200D2ED2 EQ PUSH2 0x242 JUMPI DUP1 PUSH4 0x36201E53 EQ PUSH2 0x278 JUMPI JUMPDEST PUSH1 0x0 DUP1 REVERT JUMPDEST CALLVALUE DUP1 ISZERO PUSH2 0x1F4 JUMPI PUSH1 0x0 DUP1 REVERT JUMPDEST POP PUSH2 0x1FD PUSH2 0x62E JUMP JUMPDEST PUSH1 0x40 DUP1 MLOAD SWAP2 DUP3 MSTORE MLOAD SWAP1 DUP2 SWAP1 SUB PUSH1 0x20 ADD SWAP1 RETURN JUMPDEST CALLVALUE DUP1 ISZERO PUSH2 0x21B JUMPI PUSH1 0x0 DUP1 REVERT JUMPDEST POP PUSH2 0x1FD PUSH1 0x4 DUP1 CALLDATASIZE SUB PUSH1 0x20 DUP2 LT ISZERO PUSH2 0x232 JUMPI PUSH1 0x0 DUP1 REVERT JUMPDEST POP CALLDATALOAD PUSH1 0x1 PUSH1 0x1 PUSH1 0xA0 SHL SUB AND PUSH2 0x634 JUMP JUMPDEST CALLVALUE DUP1 ISZERO PUSH2 0x24E JUMPI PUSH1 0x0 DUP1 REVERT JUMPDEST POP PUSH2 0x257 PUSH2 0x646 JUMP JUMPDEST PUSH1 0x40 MLOAD DUP1 DUP3 PUSH1 0x1 DUP2 GT ISZERO PUSH2 0x267 JUMPI INVALID JUMPDEST DUP2 MSTORE PUSH1 0x20 ADD SWAP2 POP POP PUSH1 0x40 MLOAD DUP1 SWAP2 SUB SWAP1 RETURN JUMPDEST CALLVALUE DUP1 ISZERO PUSH2 0x284 JUMPI PUSH1 0x0 DUP1 REVERT JUMPDEST POP PUSH2 0x1FD PUSH2 0x656 JUMP JUMPDEST CALLVALUE DUP1 ISZERO PUSH2 0x299 JUMPI PUSH1 0x0 DUP1 REVERT JUMPDEST POP PUSH2 0x2A2 PUSH2 0x65C JUMP JUMPDEST STOP JUMPDEST CALLVALUE DUP1 ISZERO PUSH2 0x2B0 JUMPI PUSH1 0x0 DUP1 REVERT JUMPDEST POP PUSH2 0x1FD PUSH1 0x4 DUP1 CALLDATASIZE SUB PUSH1 0x20 DUP2 LT ISZERO PUSH2 0x2C7 JUMPI PUSH1 0x0 DUP1 REVERT JUMPDEST POP CALLDATALOAD PUSH1 0x1 PUSH1 0x1 PUSH1 0xA0 SHL SUB AND PUSH2 0x71E JUMP JUMPDEST CALLVALUE DUP1 ISZERO PUSH2 0x2E3 JUMPI PUSH1 0x0 DUP1 REVERT JUMPDEST POP PUSH2 0x2A2 PUSH1 0x4 DUP1 CALLDATASIZE SUB PUSH1 0x20 DUP2 LT ISZERO PUSH2 0x2FA JUMPI PUSH1 0x0 DUP1 REVERT JUMPDEST POP CALLDATALOAD PUSH1 0xFF AND PUSH2 0x730 JUMP JUMPDEST CALLVALUE DUP1 ISZERO PUSH2 0x310 JUMPI PUSH1 0x0 DUP1 REVERT JUMPDEST POP PUSH2 0x2A2 PUSH2 0x8DA JUMP JUMPDEST CALLVALUE DUP1 ISZERO PUSH2 0x325 JUMPI PUSH1 0x0 DUP1 REVERT JUMPDEST POP PUSH2 0x1FD PUSH2 0x998 JUMP JUMPDEST CALLVALUE DUP1 ISZERO PUSH2 0x33A JUMPI PUSH1 0x0 DUP1 REVERT JUMPDEST POP PUSH2 0x1FD PUSH1 0x4 DUP1 CALLDATASIZE SUB PUSH1 0x20 DUP2 LT ISZERO PUSH2 0x351 JUMPI PUSH1 0x0 DUP1 REVERT JUMPDEST POP CALLDATALOAD PUSH2 0x99E JUMP JUMPDEST CALLVALUE DUP1 ISZERO PUSH2 0x364 JUMPI PUSH1 0x0 DUP1 REVERT JUMPDEST POP PUSH2 0x1FD PUSH2 0x9BC JUMP JUMPDEST CALLVALUE DUP1 ISZERO PUSH2 0x379 JUMPI PUSH1 0x0 DUP1 REVERT JUMPDEST POP PUSH2 0x382 PUSH2 0x9C2 JUMP JUMPDEST PUSH1 0x40 DUP1 MLOAD PUSH1 0x1 PUSH1 0x1 PUSH1 0xA0 SHL SUB SWAP1 SWAP3 AND DUP3 MSTORE MLOAD SWAP1 DUP2 SWAP1 SUB PUSH1 0x20 ADD SWAP1 RETURN JUMPDEST CALLVALUE DUP1 ISZERO PUSH2 0x3AA JUMPI PUSH1 0x0 DUP1 REVERT JUMPDEST POP PUSH2 0x382 PUSH1 0x4 DUP1 CALLDATASIZE SUB PUSH1 0x20 DUP2 LT ISZERO PUSH2 0x3C1 JUMPI PUSH1 0x0 DUP1 REVERT JUMPDEST POP CALLDATALOAD PUSH2 0x9D2 JUMP JUMPDEST CALLVALUE DUP1 ISZERO PUSH2 0x3D4 JUMPI PUSH1 0x0 DUP1 REVERT JUMPDEST POP PUSH2 0x382 PUSH2 0x9ED JUMP JUMPDEST CALLVALUE DUP1 ISZERO PUSH2 0x3E9 JUMPI PUSH1 0x0 DUP1 REVERT JUMPDEST POP PUSH2 0x382 PUSH1 0x4 DUP1 CALLDATASIZE SUB PUSH1 0x20 DUP2 LT ISZERO PUSH2 0x400 JUMPI PUSH1 0x0 DUP1 REVERT JUMPDEST POP CALLDATALOAD PUSH2 0xA01 JUMP JUMPDEST CALLVALUE DUP1 ISZERO PUSH2 0x413 JUMPI PUSH1 0x0 DUP1 REVERT JUMPDEST POP PUSH2 0x1FD PUSH1 0x4 DUP1 CALLDATASIZE SUB PUSH1 0x20 DUP2 LT ISZERO PUSH2 0x42A JUMPI PUSH1 0x0 DUP1 REVERT JUMPDEST POP CALLDATALOAD PUSH2 0xA1C JUMP JUMPDEST CALLVALUE DUP1 ISZERO PUSH2 0x43D JUMPI PUSH1 0x0 DUP1 REVERT JUMPDEST POP PUSH2 0x1FD PUSH2 0xA29 JUMP JUMPDEST CALLVALUE DUP1 ISZERO PUSH2 0x452 JUMPI PUSH1 0x0 DUP1 REVERT JUMPDEST POP PUSH2 0x1FD PUSH1 0x4 DUP1 CALLDATASIZE SUB PUSH1 0x20 DUP2 LT ISZERO PUSH2 0x469 JUMPI PUSH1 0x0 DUP1 REVERT JUMPDEST POP CALLDATALOAD PUSH2 0xA2F JUMP JUMPDEST PUSH2 0x2A2 PUSH1 0x4 DUP1 CALLDATASIZE SUB PUSH1 0x20 DUP2 LT ISZERO PUSH2 0x486 JUMPI PUSH1 0x0 DUP1 REVERT JUMPDEST POP CALLDATALOAD PUSH2 0xA3C JUMP JUMPDEST CALLVALUE DUP1 ISZERO PUSH2 0x499 JUMPI PUSH1 0x0 DUP1 REVERT JUMPDEST POP PUSH2 0x1FD PUSH1 0x4 DUP1 CALLDATASIZE SUB PUSH1 0x20 DUP2 LT ISZERO PUSH2 0x4B0 JUMPI PUSH1 0x0 DUP1 REVERT JUMPDEST POP CALLDATALOAD PUSH1 0x1 PUSH1 0x1 PUSH1 0xA0 SHL SUB AND PUSH2 0xBDA JUMP JUMPDEST CALLVALUE DUP1 ISZERO PUSH2 0x4CC JUMPI PUSH1 0x0 DUP1 REVERT JUMPDEST POP PUSH2 0x1FD PUSH2 0xBEC JUMP JUMPDEST CALLVALUE DUP1 ISZERO PUSH2 0x4E1 JUMPI PUSH1 0x0 DUP1 REVERT JUMPDEST POP PUSH2 0x1FD PUSH2 0xBF2 JUMP JUMPDEST CALLVALUE DUP1 ISZERO PUSH2 0x4F6 JUMPI PUSH1 0x0 DUP1 REVERT JUMPDEST POP PUSH2 0x1FD PUSH2 0xBF8 JUMP JUMPDEST CALLVALUE DUP1 ISZERO PUSH2 0x50B JUMPI PUSH1 0x0 DUP1 REVERT JUMPDEST POP PUSH2 0x1FD PUSH1 0x4 DUP1 CALLDATASIZE SUB PUSH1 0x20 DUP2 LT ISZERO PUSH2 0x522 JUMPI PUSH1 0x0 DUP1 REVERT JUMPDEST POP CALLDATALOAD PUSH1 0x1 PUSH1 0x1 PUSH1 0xA0 SHL SUB AND PUSH2 0xBFE JUMP JUMPDEST CALLVALUE DUP1 ISZERO PUSH2 0x53E JUMPI PUSH1 0x0 DUP1 REVERT JUMPDEST POP PUSH2 0x382 PUSH1 0x4 DUP1 CALLDATASIZE SUB PUSH1 0x20 DUP2 LT ISZERO PUSH2 0x555 JUMPI PUSH1 0x0 DUP1 REVERT JUMPDEST POP CALLDATALOAD PUSH2 0xC10 JUMP JUMPDEST PUSH2 0x2A2 PUSH1 0x4 DUP1 CALLDATASIZE SUB PUSH1 0x40 DUP2 LT ISZERO PUSH2 0x572 JUMPI PUSH1 0x0 DUP1 REVERT JUMPDEST POP PUSH1 0xFF DUP2 CALLDATALOAD AND SWAP1 PUSH1 0x20 ADD CALLDATALOAD PUSH2 0xC2B JUMP JUMPDEST CALLVALUE DUP1 ISZERO PUSH2 0x58E JUMPI PUSH1 0x0 DUP1 REVERT JUMPDEST POP PUSH2 0x382 PUSH2 0xE2B JUMP JUMPDEST CALLVALUE DUP1 ISZERO PUSH2 0x5A3 JUMPI PUSH1 0x0 DUP1 REVERT JUMPDEST POP PUSH2 0x1FD PUSH2 0xE3A JUMP JUMPDEST CALLVALUE DUP1 ISZERO PUSH2 0x5B8 JUMPI PUSH1 0x0 DUP1 REVERT JUMPDEST POP PUSH2 0x1FD PUSH2 0xE40 JUMP JUMPDEST CALLVALUE DUP1 ISZERO PUSH2 0x5CD JUMPI PUSH1 0x0 DUP1 REVERT JUMPDEST POP PUSH2 0x2A2 PUSH1 0x4 DUP1 CALLDATASIZE SUB PUSH1 0x20 DUP2 LT ISZERO PUSH2 0x5E4 JUMPI PUSH1 0x0 DUP1 REVERT JUMPDEST POP CALLDATALOAD PUSH1 0x1 PUSH1 0x1 PUSH1 0xA0 SHL SUB AND PUSH2 0xE46 JUMP JUMPDEST CALLVALUE DUP1 ISZERO PUSH2 0x600 JUMPI PUSH1 0x0 DUP1 REVERT JUMPDEST POP PUSH2 0x609 PUSH2 0xF5A JUMP JUMPDEST PUSH1 0x40 MLOAD DUP1 DUP3 PUSH1 0x3 DUP2 GT ISZERO PUSH2 0x267 JUMPI INVALID JUMPDEST CALLVALUE DUP1 ISZERO PUSH2 0x625 JUMPI PUSH1 0x0 DUP1 REVERT JUMPDEST POP PUSH2 0x382 PUSH2 0xF63 JUMP JUMPDEST PUSH1 0x8 SLOAD DUP2 JUMP JUMPDEST PUSH1 0x11 PUSH1 0x20 MSTORE PUSH1 0x0 SWAP1 DUP2 MSTORE PUSH1 0x40 SWAP1 KECCAK256 SLOAD DUP2 JUMP JUMPDEST PUSH1 0x0 SLOAD PUSH1 0x1 PUSH1 0xA0 SHL SWAP1 DIV PUSH1 0xFF AND DUP2 JUMP JUMPDEST PUSH1 0x4 SLOAD DUP2 JUMP JUMPDEST PUSH1 0x1 PUSH1 0x0 SLOAD PUSH1 0x1 PUSH1 0xA0 SHL SWAP1 DIV PUSH1 0xFF AND PUSH1 0x1 DUP2 GT ISZERO PUSH2 0x676 JUMPI INVALID JUMPDEST EQ PUSH2 0x6B9 JUMPI PUSH1 0x40 DUP1 MLOAD PUSH3 0x461BCD PUSH1 0xE5 SHL DUP2 MSTORE PUSH1 0x20 PUSH1 0x4 DUP3 ADD MSTORE PUSH1 0xE PUSH1 0x24 DUP3 ADD MSTORE PUSH14 0x13585D18DA081B9BDD081C185A59 PUSH1 0x92 SHL PUSH1 0x44 DUP3 ADD MSTORE SWAP1 MLOAD SWAP1 DUP2 SWAP1 SUB PUSH1 0x64 ADD SWAP1 REVERT JUMPDEST CALLER PUSH1 0x0 SWAP1 DUP2 MSTORE PUSH1 0x10 PUSH1 0x20 MSTORE PUSH1 0x40 SWAP1 KECCAK256 SLOAD PUSH2 0x70C JUMPI PUSH1 0x40 DUP1 MLOAD PUSH3 0x461BCD PUSH1 0xE5 SHL DUP2 MSTORE PUSH1 0x20 PUSH1 0x4 DUP3 ADD MSTORE PUSH1 0xF PUSH1 0x24 DUP3 ADD MSTORE PUSH15 0x62616C616E6365206973207A65726F PUSH1 0x88 SHL PUSH1 0x44 DUP3 ADD MSTORE SWAP1 MLOAD SWAP1 DUP2 SWAP1 SUB PUSH1 0x64 ADD SWAP1 REVERT JUMPDEST CALLER PUSH1 0x0 SWAP1 DUP2 MSTORE PUSH1 0x10 PUSH1 0x20 MSTORE PUSH1 0x40 DUP2 KECCAK256 SSTORE JUMP JUMPDEST PUSH1 0x10 PUSH1 0x20 MSTORE PUSH1 0x0 SWAP1 DUP2 MSTORE PUSH1 0x40 SWAP1 KECCAK256 SLOAD DUP2 JUMP JUMPDEST PUSH2 0x738 PUSH2 0xF72 JUMP JUMPDEST PUSH1 0x1 PUSH1 0x1 PUSH1 0xA0 SHL SUB AND PUSH2 0x749 PUSH2 0x9C2 JUMP JUMPDEST PUSH1 0x1 PUSH1 0x1 PUSH1 0xA0 SHL SUB AND EQ PUSH2 0x7A4 JUMPI PUSH1 0x40 DUP1 MLOAD PUSH3 0x461BCD PUSH1 0xE5 SHL DUP2 MSTORE PUSH1 0x20 PUSH1 0x4 DUP3 ADD DUP2 SWAP1 MSTORE PUSH1 0x24 DUP3 ADD MSTORE PUSH32 0x4F776E61626C653A2063616C6C6572206973206E6F7420746865206F776E6572 PUSH1 0x44 DUP3 ADD MSTORE SWAP1 MLOAD SWAP1 DUP2 SWAP1 SUB PUSH1 0x64 ADD SWAP1 REVERT JUMPDEST DUP1 PUSH1 0x1 DUP2 PUSH1 0x3 DUP2 GT ISZERO PUSH2 0x7B3 JUMPI INVALID JUMPDEST EQ DUP1 PUSH2 0x7CA JUMPI POP PUSH1 0x3 DUP2 PUSH1 0x3 DUP2 GT ISZERO PUSH2 0x7C8 JUMPI INVALID JUMPDEST EQ JUMPDEST DUP1 PUSH2 0x7E0 JUMPI POP PUSH1 0x2 DUP2 PUSH1 0x3 DUP2 GT ISZERO PUSH2 0x7DE JUMPI INVALID JUMPDEST EQ JUMPDEST PUSH2 0x831 JUMPI PUSH1 0x40 DUP1 MLOAD PUSH3 0x461BCD PUSH1 0xE5 SHL DUP2 MSTORE PUSH1 0x20 PUSH1 0x4 DUP3 ADD MSTORE PUSH1 0x1C PUSH1 0x24 DUP3 ADD MSTORE PUSH32 0x696E76616C696420617267756D656E7420666F72206265737469646500000000 PUSH1 0x44 DUP3 ADD MSTORE SWAP1 MLOAD SWAP1 DUP2 SWAP1 SUB PUSH1 0x64 ADD SWAP1 REVERT JUMPDEST PUSH1 0x0 DUP1 SLOAD PUSH1 0x1 PUSH1 0xA0 SHL SWAP1 DIV PUSH1 0xFF AND PUSH1 0x1 DUP2 GT ISZERO PUSH2 0x84A JUMPI INVALID JUMPDEST EQ PUSH2 0x895 JUMPI PUSH1 0x40 DUP1 MLOAD PUSH3 0x461BCD PUSH1 0xE5 SHL DUP2 MSTORE PUSH1 0x20 PUSH1 0x4 DUP3 ADD MSTORE PUSH1 0x16 PUSH1 0x24 DUP3 ADD MSTORE PUSH22 0x86C2DCE840E6CAE8E8D8CA40E8D0D2E640DAC2E8C6D PUSH1 0x53 SHL PUSH1 0x44 DUP3 ADD MSTORE SWAP1 MLOAD SWAP1 DUP2 SWAP1 SUB PUSH1 0x64 ADD SWAP1 REVERT JUMPDEST PUSH1 0x0 DUP1 SLOAD PUSH1 0xFF PUSH1 0xA0 SHL NOT AND PUSH1 0x1 PUSH1 0xA0 SHL OR SWAP1 SSTORE PUSH1 0x17 DUP1 SLOAD DUP4 SWAP2 SWAP1 PUSH1 0xFF NOT AND PUSH1 0x1 DUP4 PUSH1 0x3 DUP2 GT ISZERO PUSH2 0x8C1 JUMPI INVALID JUMPDEST MUL OR SWAP1 SSTORE POP PUSH2 0x8CE PUSH2 0xF76 JUMP JUMPDEST PUSH2 0x8D6 PUSH2 0x1021 JUMP JUMPDEST POP POP JUMP JUMPDEST PUSH2 0x8E2 PUSH2 0xF72 JUMP JUMPDEST PUSH1 0x1 PUSH1 0x1 PUSH1 0xA0 SHL SUB AND PUSH2 0x8F3 PUSH2 0x9C2 JUMP JUMPDEST PUSH1 0x1 PUSH1 0x1 PUSH1 0xA0 SHL SUB AND EQ PUSH2 0x94E JUMPI PUSH1 0x40 DUP1 MLOAD PUSH3 0x461BCD PUSH1 0xE5 SHL DUP2 MSTORE PUSH1 0x20 PUSH1 0x4 DUP3 ADD DUP2 SWAP1 MSTORE PUSH1 0x24 DUP3 ADD MSTORE PUSH32 0x4F776E61626C653A2063616C6C6572206973206E6F7420746865206F776E6572 PUSH1 0x44 DUP3 ADD MSTORE SWAP1 MLOAD SWAP1 DUP2 SWAP1 SUB PUSH1 0x64 ADD SWAP1 REVERT JUMPDEST PUSH1 0x0 DUP1 SLOAD PUSH1 0x40 MLOAD PUSH1 0x1 PUSH1 0x1 PUSH1 0xA0 SHL SUB SWAP1 SWAP2 AND SWAP1 PUSH32 0x8BE0079C531659141344CD1FD0A4F28419497F9722A3DAAFE3B4186F6B6457E0 SWAP1 DUP4 SWAP1 LOG3 PUSH1 0x0 DUP1 SLOAD PUSH1 0x1 PUSH1 0x1 PUSH1 0xA0 SHL SUB NOT AND SWAP1 SSTORE JUMP JUMPDEST PUSH1 0x16 SLOAD DUP2 JUMP JUMPDEST PUSH1 0xB DUP2 DUP2 SLOAD DUP2 LT PUSH2 0x9AB JUMPI INVALID JUMPDEST PUSH1 0x0 SWAP2 DUP3 MSTORE PUSH1 0x20 SWAP1 SWAP2 KECCAK256 ADD SLOAD SWAP1 POP DUP2 JUMP JUMPDEST PUSH1 0x3 SLOAD DUP2 JUMP JUMPDEST PUSH1 0x0 SLOAD PUSH1 0x1 PUSH1 0x1 PUSH1 0xA0 SHL SUB AND JUMPDEST SWAP1 JUMP JUMPDEST PUSH1 0xF PUSH1 0x20 MSTORE PUSH1 0x0 SWAP1 DUP2 MSTORE PUSH1 0x40 SWAP1 KECCAK256 SLOAD PUSH1 0x1 PUSH1 0x1 PUSH1 0xA0 SHL SUB AND DUP2 JUMP JUMPDEST PUSH1 0x17 SLOAD PUSH2 0x100 SWAP1 DIV PUSH1 0x1 PUSH1 0x1 PUSH1 0xA0 SHL SUB AND DUP2 JUMP JUMPDEST PUSH1 0xE PUSH1 0x20 MSTORE PUSH1 0x0 SWAP1 DUP2 MSTORE PUSH1 0x40 SWAP1 KECCAK256 SLOAD PUSH1 0x1 PUSH1 0x1 PUSH1 0xA0 SHL SUB AND DUP2 JUMP JUMPDEST PUSH1 0xA DUP2 DUP2 SLOAD DUP2 LT PUSH2 0x9AB JUMPI INVALID JUMPDEST PUSH1 0x1 SLOAD DUP2 JUMP JUMPDEST PUSH1 0xC DUP2 DUP2 SLOAD DUP2 LT PUSH2 0x9AB JUMPI INVALID JUMPDEST PUSH1 0x0 DUP1 SLOAD PUSH1 0x1 PUSH1 0xA0 SHL SWAP1 DIV PUSH1 0xFF AND PUSH1 0x1 DUP2 GT ISZERO PUSH2 0xA55 JUMPI INVALID JUMPDEST EQ PUSH2 0xA98 JUMPI PUSH1 0x40 DUP1 MLOAD PUSH3 0x461BCD PUSH1 0xE5 SHL DUP2 MSTORE PUSH1 0x20 PUSH1 0x4 DUP3 ADD MSTORE PUSH1 0xE PUSH1 0x24 DUP3 ADD MSTORE PUSH14 0x26B0BA31B4103737BA1037B832B7 PUSH1 0x91 SHL PUSH1 0x44 DUP3 ADD MSTORE SWAP1 MLOAD SWAP1 DUP2 SWAP1 SUB PUSH1 0x64 ADD SWAP1 REVERT JUMPDEST PUSH1 0x1 SLOAD NUMBER LT PUSH2 0xAE3 JUMPI PUSH1 0x40 DUP1 MLOAD PUSH3 0x461BCD PUSH1 0xE5 SHL DUP2 MSTORE PUSH1 0x20 PUSH1 0x4 DUP3 ADD MSTORE PUSH1 0x12 PUSH1 0x24 DUP3 ADD MSTORE PUSH18 0x43616E7420706C61636520626574206E6F77 PUSH1 0x70 SHL PUSH1 0x44 DUP3 ADD MSTORE SWAP1 MLOAD SWAP1 DUP2 SWAP1 SUB PUSH1 0x64 ADD SWAP1 REVERT JUMPDEST PUSH1 0x0 DUP2 GT PUSH2 0xB31 JUMPI PUSH1 0x40 DUP1 MLOAD PUSH3 0x461BCD PUSH1 0xE5 SHL DUP2 MSTORE PUSH1 0x20 PUSH1 0x4 DUP3 ADD MSTORE PUSH1 0x16 PUSH1 0x24 DUP3 ADD MSTORE PUSH22 0x30B6B7BAB73A1036BAB9BA103132903837B9B4BA34B3 PUSH1 0x51 SHL PUSH1 0x44 DUP3 ADD MSTORE SWAP1 MLOAD SWAP1 DUP2 SWAP1 SUB PUSH1 0x64 ADD SWAP1 REVERT JUMPDEST PUSH1 0x17 SLOAD PUSH1 0x14 SLOAD PUSH1 0x40 DUP1 MLOAD PUSH4 0xE8EDA9DF PUSH1 0xE0 SHL DUP2 MSTORE PUSH1 0x1 PUSH1 0x1 PUSH1 0xA0 SHL SUB SWAP3 DUP4 AND PUSH1 0x4 DUP3 ADD MSTORE PUSH1 0x24 DUP2 ADD DUP6 SWAP1 MSTORE ADDRESS PUSH1 0x44 DUP3 ADD MSTORE PUSH1 0x0 PUSH1 0x64 DUP3 ADD DUP2 SWAP1 MSTORE SWAP2 MLOAD PUSH2 0x100 SWAP1 SWAP5 DIV SWAP1 SWAP3 AND SWAP3 PUSH4 0xE8EDA9DF SWAP3 PUSH1 0x84 DUP1 DUP3 ADD SWAP4 SWAP3 SWAP2 DUP3 SWAP1 SUB ADD DUP2 DUP4 DUP8 DUP1 EXTCODESIZE ISZERO DUP1 ISZERO PUSH2 0xB9A JUMPI PUSH1 0x0 DUP1 REVERT JUMPDEST POP GAS CALL ISZERO DUP1 ISZERO PUSH2 0xBAE JUMPI RETURNDATASIZE PUSH1 0x0 DUP1 RETURNDATACOPY RETURNDATASIZE PUSH1 0x0 REVERT JUMPDEST POP POP PUSH1 0x3 DUP1 SLOAD DUP5 ADD SWAP1 SSTORE POP POP PUSH1 0x16 DUP1 SLOAD DUP3 ADD SWAP1 SSTORE CALLER PUSH1 0x0 SWAP1 DUP2 MSTORE PUSH1 0x10 PUSH1 0x20 MSTORE PUSH1 0x40 SWAP1 KECCAK256 DUP1 SLOAD SWAP1 SWAP2 ADD SWAP1 SSTORE JUMP JUMPDEST PUSH1 0x13 PUSH1 0x20 MSTORE PUSH1 0x0 SWAP1 DUP2 MSTORE PUSH1 0x40 SWAP1 KECCAK256 SLOAD DUP2 JUMP JUMPDEST PUSH1 0x6 SLOAD DUP2 JUMP JUMPDEST PUSH1 0x9 SLOAD DUP2 JUMP JUMPDEST PUSH1 0x2 SLOAD DUP2 JUMP JUMPDEST PUSH1 0x12 PUSH1 0x20 MSTORE PUSH1 0x0 SWAP1 DUP2 MSTORE PUSH1 0x40 SWAP1 KECCAK256 SLOAD DUP2 JUMP JUMPDEST PUSH1 0xD PUSH1 0x20 MSTORE PUSH1 0x0 SWAP1 DUP2 MSTORE PUSH1 0x40 SWAP1 KECCAK256 SLOAD PUSH1 0x1 PUSH1 0x1 PUSH1 0xA0 SHL SUB AND DUP2 JUMP JUMPDEST PUSH1 0x0 DUP1 SLOAD PUSH1 0x1 PUSH1 0xA0 SHL SWAP1 DIV PUSH1 0xFF AND PUSH1 0x1 DUP2 GT ISZERO PUSH2 0xC44 JUMPI INVALID JUMPDEST EQ PUSH2 0xC87 JUMPI PUSH1 0x40 DUP1 MLOAD PUSH3 0x461BCD PUSH1 0xE5 SHL DUP2 MSTORE PUSH1 0x20 PUSH1 0x4 DUP3 ADD MSTORE PUSH1 0xE PUSH1 0x24 DUP3 ADD MSTORE PUSH14 0x26B0BA31B4103737BA1037B832B7 PUSH1 0x91 SHL PUSH1 0x44 DUP3 ADD MSTORE SWAP1 MLOAD SWAP1 DUP2 SWAP1 SUB PUSH1 0x64 ADD SWAP1 REVERT JUMPDEST PUSH1 0x1 SLOAD NUMBER LT PUSH2 0xCD2 JUMPI PUSH1 0x40 DUP1 MLOAD PUSH3 0x461BCD PUSH1 0xE5 SHL DUP2 MSTORE PUSH1 0x20 PUSH1 0x4 DUP3 ADD MSTORE PUSH1 0x12 PUSH1 0x24 DUP3 ADD MSTORE PUSH18 0x43616E7420706C61636520626574206E6F77 PUSH1 0x70 SHL PUSH1 0x44 DUP3 ADD MSTORE SWAP1 MLOAD SWAP1 DUP2 SWAP1 SUB PUSH1 0x64 ADD SWAP1 REVERT JUMPDEST DUP2 PUSH1 0x1 DUP2 PUSH1 0x3 DUP2 GT ISZERO PUSH2 0xCE1 JUMPI INVALID JUMPDEST EQ DUP1 PUSH2 0xCF8 JUMPI POP PUSH1 0x3 DUP2 PUSH1 0x3 DUP2 GT ISZERO PUSH2 0xCF6 JUMPI INVALID JUMPDEST EQ JUMPDEST DUP1 PUSH2 0xD0E JUMPI POP PUSH1 0x2 DUP2 PUSH1 0x3 DUP2 GT ISZERO PUSH2 0xD0C JUMPI INVALID JUMPDEST EQ JUMPDEST PUSH2 0xD5F JUMPI PUSH1 0x40 DUP1 MLOAD PUSH3 0x461BCD PUSH1 0xE5 SHL DUP2 MSTORE PUSH1 0x20 PUSH1 0x4 DUP3 ADD MSTORE PUSH1 0x1C PUSH1 0x24 DUP3 ADD MSTORE PUSH32 0x696E76616C696420617267756D656E7420666F72206265737469646500000000 PUSH1 0x44 DUP3 ADD MSTORE SWAP1 MLOAD SWAP1 DUP2 SWAP1 SUB PUSH1 0x64 ADD SWAP1 REVERT JUMPDEST PUSH1 0x0 DUP3 GT PUSH2 0xDAD JUMPI PUSH1 0x40 DUP1 MLOAD PUSH3 0x461BCD PUSH1 0xE5 SHL DUP2 MSTORE PUSH1 0x20 PUSH1 0x4 DUP3 ADD MSTORE PUSH1 0x16 PUSH1 0x24 DUP3 ADD MSTORE PUSH22 0x30B6B7BAB73A1036BAB9BA103132903837B9B4BA34B3 PUSH1 0x51 SHL PUSH1 0x44 DUP3 ADD MSTORE SWAP1 MLOAD SWAP1 DUP2 SWAP1 SUB PUSH1 0x64 ADD SWAP1 REVERT JUMPDEST PUSH1 0x1 DUP4 PUSH1 0x3 DUP2 GT ISZERO PUSH2 0xDBB JUMPI INVALID JUMPDEST EQ ISZERO PUSH2 0xDCF JUMPI PUSH2 0xDCA DUP3 PUSH2 0x10C4 JUMP JUMPDEST PUSH2 0xE09 JUMP JUMPDEST PUSH1 0x3 DUP4 PUSH1 0x3 DUP2 GT ISZERO PUSH2 0xDDD JUMPI INVALID JUMPDEST EQ ISZERO PUSH2 0xDEC JUMPI PUSH2 0xDCA DUP3 PUSH2 0x114D JUMP JUMPDEST PUSH1 0x2 DUP4 PUSH1 0x3 DUP2 GT ISZERO PUSH2 0xDFA JUMPI INVALID JUMPDEST EQ ISZERO PUSH2 0xE09 JUMPI PUSH2 0xE09 DUP3 PUSH2 0x11D6 JUMP JUMPDEST POP PUSH1 0x3 DUP1 SLOAD DUP3 ADD SWAP1 SSTORE CALLER PUSH1 0x0 SWAP1 DUP2 MSTORE PUSH1 0x10 PUSH1 0x20 MSTORE PUSH1 0x40 SWAP1 KECCAK256 DUP1 SLOAD SWAP1 SWAP2 ADD SWAP1 SSTORE POP JUMP JUMPDEST PUSH1 0x15 SLOAD PUSH1 0x1 PUSH1 0x1 PUSH1 0xA0 SHL SUB AND DUP2 JUMP JUMPDEST PUSH1 0x5 SLOAD DUP2 JUMP JUMPDEST PUSH1 0x7 SLOAD DUP2 JUMP JUMPDEST PUSH2 0xE4E PUSH2 0xF72 JUMP JUMPDEST PUSH1 0x1 PUSH1 0x1 PUSH1 0xA0 SHL SUB AND PUSH2 0xE5F PUSH2 0x9C2 JUMP JUMPDEST PUSH1 0x1 PUSH1 0x1 PUSH1 0xA0 SHL SUB AND EQ PUSH2 0xEBA JUMPI PUSH1 0x40 DUP1 MLOAD PUSH3 0x461BCD PUSH1 0xE5 SHL DUP2 MSTORE PUSH1 0x20 PUSH1 0x4 DUP3 ADD DUP2 SWAP1 MSTORE PUSH1 0x24 DUP3 ADD MSTORE PUSH32 0x4F776E61626C653A2063616C6C6572206973206E6F7420746865206F776E6572 PUSH1 0x44 DUP3 ADD MSTORE SWAP1 MLOAD SWAP1 DUP2 SWAP1 SUB PUSH1 0x64 ADD SWAP1 REVERT JUMPDEST PUSH1 0x1 PUSH1 0x1 PUSH1 0xA0 SHL SUB DUP2 AND PUSH2 0xEFF JUMPI PUSH1 0x40 MLOAD PUSH3 0x461BCD PUSH1 0xE5 SHL DUP2 MSTORE PUSH1 0x4 ADD DUP1 DUP1 PUSH1 0x20 ADD DUP3 DUP2 SUB DUP3 MSTORE PUSH1 0x26 DUP2 MSTORE PUSH1 0x20 ADD DUP1 PUSH2 0x1647 PUSH1 0x26 SWAP2 CODECOPY PUSH1 0x40 ADD SWAP2 POP POP PUSH1 0x40 MLOAD DUP1 SWAP2 SUB SWAP1 REVERT JUMPDEST PUSH1 0x0 DUP1 SLOAD PUSH1 0x40 MLOAD PUSH1 0x1 PUSH1 0x1 PUSH1 0xA0 SHL SUB DUP1 DUP6 AND SWAP4 SWAP3 AND SWAP2 PUSH32 0x8BE0079C531659141344CD1FD0A4F28419497F9722A3DAAFE3B4186F6B6457E0 SWAP2 LOG3 PUSH1 0x0 DUP1 SLOAD PUSH1 0x1 PUSH1 0x1 PUSH1 0xA0 SHL SUB NOT AND PUSH1 0x1 PUSH1 0x1 PUSH1 0xA0 SHL SUB SWAP3 SWAP1 SWAP3 AND SWAP2 SWAP1 SWAP2 OR SWAP1 SSTORE JUMP JUMPDEST PUSH1 0x17 SLOAD PUSH1 0xFF AND DUP2 JUMP JUMPDEST PUSH1 0x14 SLOAD PUSH1 0x1 PUSH1 0x1 PUSH1 0xA0 SHL SUB AND DUP2 JUMP JUMPDEST CALLER SWAP1 JUMP JUMPDEST PUSH1 0x1 PUSH1 0x17 SLOAD PUSH1 0xFF AND PUSH1 0x3 DUP2 GT ISZERO PUSH2 0xF89 JUMPI INVALID JUMPDEST EQ ISZERO PUSH2 0xFBC JUMPI PUSH2 0xF97 PUSH2 0x1261 JUMP JUMPDEST PUSH1 0x15 DUP1 SLOAD PUSH1 0x1 PUSH1 0x1 PUSH1 0xA0 SHL SUB NOT AND PUSH1 0x1 PUSH1 0x1 PUSH1 0xA0 SHL SUB SWAP3 SWAP1 SWAP3 AND SWAP2 SWAP1 SWAP2 OR SWAP1 SSTORE PUSH2 0x101F JUMP JUMPDEST PUSH1 0x3 PUSH1 0x17 SLOAD PUSH1 0xFF AND PUSH1 0x3 DUP2 GT ISZERO PUSH2 0xFCF JUMPI INVALID JUMPDEST EQ ISZERO PUSH2 0xFDD JUMPI PUSH2 0xF97 PUSH2 0x1393 JUMP JUMPDEST PUSH1 0x2 PUSH1 0x17 SLOAD PUSH1 0xFF AND PUSH1 0x3 DUP2 GT ISZERO PUSH2 0xFF0 JUMPI INVALID JUMPDEST EQ ISZERO PUSH2 0x101F JUMPI PUSH2 0xFFE PUSH2 0x14C5 JUMP JUMPDEST PUSH1 0x15 DUP1 SLOAD PUSH1 0x1 PUSH1 0x1 PUSH1 0xA0 SHL SUB NOT AND PUSH1 0x1 PUSH1 0x1 PUSH1 0xA0 SHL SUB SWAP3 SWAP1 SWAP3 AND SWAP2 SWAP1 SWAP2 OR SWAP1 SSTORE JUMPDEST JUMP JUMPDEST PUSH1 0x3 SLOAD PUSH1 0x14 SLOAD PUSH1 0x40 DUP1 MLOAD PUSH4 0x70A08231 PUSH1 0xE0 SHL DUP2 MSTORE ADDRESS PUSH1 0x4 DUP3 ADD MSTORE SWAP1 MLOAD PUSH1 0x0 SWAP4 SWAP3 PUSH1 0x1 PUSH1 0x1 PUSH1 0xA0 SHL SUB AND SWAP2 PUSH4 0x70A08231 SWAP2 PUSH1 0x24 DUP1 DUP4 ADD SWAP3 PUSH1 0x20 SWAP3 SWAP2 SWAP1 DUP3 SWAP1 SUB ADD DUP2 DUP7 DUP1 EXTCODESIZE ISZERO DUP1 ISZERO PUSH2 0x1070 JUMPI PUSH1 0x0 DUP1 REVERT JUMPDEST POP GAS STATICCALL ISZERO DUP1 ISZERO PUSH2 0x1084 JUMPI RETURNDATASIZE PUSH1 0x0 DUP1 RETURNDATACOPY RETURNDATASIZE PUSH1 0x0 REVERT JUMPDEST POP POP POP POP PUSH1 0x40 MLOAD RETURNDATASIZE PUSH1 0x20 DUP2 LT ISZERO PUSH2 0x109A JUMPI PUSH1 0x0 DUP1 REVERT JUMPDEST POP MLOAD PUSH1 0x15 SLOAD PUSH1 0x1 PUSH1 0x1 PUSH1 0xA0 SHL SUB AND PUSH1 0x0 SWAP1 DUP2 MSTORE PUSH1 0x10 PUSH1 0x20 MSTORE PUSH1 0x40 SWAP1 KECCAK256 DUP1 SLOAD SWAP3 SWAP1 SWAP2 SUB SWAP1 SWAP2 ADD SWAP1 SSTORE POP JUMP JUMPDEST PUSH1 0x1 DUP1 SLOAD CALLER PUSH1 0x0 DUP2 DUP2 MSTORE PUSH1 0x11 PUSH1 0x20 SWAP1 DUP2 MSTORE PUSH1 0x40 DUP1 DUP4 KECCAK256 DUP1 SLOAD NUMBER SWAP1 SWAP7 SUB SWAP8 SWAP1 SWAP8 MUL SWAP5 DUP6 ADD SWAP1 SWAP7 SSTORE PUSH1 0x4 DUP1 SLOAD SWAP1 SWAP5 ADD SWAP4 DUP5 SWAP1 SSTORE PUSH1 0xA DUP1 SLOAD DUP1 DUP8 ADD SWAP1 SWAP2 SSTORE PUSH32 0xC65A7BB8D6351C1CF70C95A316CC6A92839C986682D98BC35F958F4883F9D2A8 ADD SWAP4 SWAP1 SWAP4 SSTORE PUSH1 0x7 DUP1 SLOAD DUP3 MSTORE PUSH1 0xD SWAP1 SWAP4 MSTORE SWAP4 SWAP1 SWAP4 KECCAK256 DUP1 SLOAD PUSH1 0x1 PUSH1 0x1 PUSH1 0xA0 SHL SUB NOT AND SWAP1 SWAP4 OR SWAP1 SWAP3 SSTORE DUP2 SLOAD ADD SWAP1 SSTORE JUMP JUMPDEST PUSH1 0x1 DUP1 SLOAD CALLER PUSH1 0x0 DUP2 DUP2 MSTORE PUSH1 0x13 PUSH1 0x20 SWAP1 DUP2 MSTORE PUSH1 0x40 DUP1 DUP4 KECCAK256 DUP1 SLOAD NUMBER SWAP1 SWAP7 SUB SWAP8 SWAP1 SWAP8 MUL SWAP5 DUP6 ADD SWAP1 SWAP7 SSTORE PUSH1 0x6 DUP1 SLOAD SWAP1 SWAP5 ADD SWAP4 DUP5 SWAP1 SSTORE PUSH1 0xC DUP1 SLOAD DUP1 DUP8 ADD SWAP1 SWAP2 SSTORE PUSH32 0xDF6966C971051C3D54EC59162606531493A51404A002842F56009D7E5CF4A8C7 ADD SWAP4 SWAP1 SWAP4 SSTORE PUSH1 0x9 DUP1 SLOAD DUP3 MSTORE PUSH1 0xF SWAP1 SWAP4 MSTORE SWAP4 SWAP1 SWAP4 KECCAK256 DUP1 SLOAD PUSH1 0x1 PUSH1 0x1 PUSH1 0xA0 SHL SUB NOT AND SWAP1 SWAP4 OR SWAP1 SWAP3 SSTORE DUP2 SLOAD ADD SWAP1 SSTORE JUMP JUMPDEST PUSH1 0x1 DUP1 SLOAD CALLER PUSH1 0x0 DUP2 DUP2 MSTORE PUSH1 0x12 PUSH1 0x20 SWAP1 DUP2 MSTORE PUSH1 0x40 DUP1 DUP4 KECCAK256 DUP1 SLOAD NUMBER SWAP1 SWAP7 SUB SWAP8 SWAP1 SWAP8 MUL SWAP5 DUP6 ADD SWAP1 SWAP7 SSTORE PUSH1 0x5 DUP1 SLOAD SWAP1 SWAP5 ADD SWAP4 DUP5 SWAP1 SSTORE PUSH1 0xB DUP1 SLOAD DUP1 DUP8 ADD SWAP1 SWAP2 SSTORE PUSH32 0x175B7A638427703F0DBE7BB9BBF987A2551717B34E79F33B5B1008D1FA01DB9 ADD SWAP4 SWAP1 SWAP4 SSTORE PUSH1 0x7 SLOAD DUP2 MSTORE PUSH1 0xE SWAP1 SWAP3 MSTORE SWAP3 SWAP1 KECCAK256 DUP1 SLOAD PUSH1 0x1 PUSH1 0x1 PUSH1 0xA0 SHL SUB NOT AND SWAP1 SWAP3 OR SWAP1 SWAP2 SSTORE PUSH1 0x8 DUP1 SLOAD SWAP1 SWAP2 ADD SWAP1 SSTORE JUMP JUMPDEST PUSH1 0x0 DUP1 PUSH2 0x126C PUSH2 0x15F7 JUMP JUMPDEST SWAP1 POP PUSH1 0x4 SLOAD DUP2 DUP2 PUSH2 0x1279 JUMPI INVALID JUMPDEST MOD SWAP1 POP PUSH1 0xA PUSH1 0x0 DUP2 SLOAD DUP2 LT PUSH2 0x128A JUMPI INVALID JUMPDEST SWAP1 PUSH1 0x0 MSTORE PUSH1 0x20 PUSH1 0x0 KECCAK256 ADD SLOAD DUP2 LT ISZERO PUSH2 0x12D7 JUMPI POP POP PUSH1 0x0 DUP1 MSTORE PUSH1 0xD PUSH1 0x20 MSTORE PUSH32 0x81955A0A11E65EAC625C29E8882660BAE4E165A75D72780094ACAE8ECE9A29EE SLOAD PUSH1 0x1 PUSH1 0x1 PUSH1 0xA0 SHL SUB AND PUSH2 0x9CF JUMP JUMPDEST PUSH1 0xA SLOAD PUSH1 0x0 NOT ADD PUSH1 0x0 JUMPDEST DUP2 DUP2 GT PUSH2 0x1374 JUMPI PUSH1 0x0 PUSH1 0x2 DUP3 DUP5 SUB DIV DUP3 ADD SWAP1 POP PUSH1 0xA DUP2 DUP2 SLOAD DUP2 LT PUSH2 0x1301 JUMPI INVALID JUMPDEST SWAP1 PUSH1 0x0 MSTORE PUSH1 0x20 PUSH1 0x0 KECCAK256 ADD SLOAD DUP5 LT ISZERO PUSH2 0x131E JUMPI PUSH1 0x1 DUP2 SUB SWAP3 POP PUSH2 0x136E JUMP JUMPDEST PUSH1 0xA DUP2 DUP2 SLOAD DUP2 LT PUSH2 0x132B JUMPI INVALID JUMPDEST SWAP1 PUSH1 0x0 MSTORE PUSH1 0x20 PUSH1 0x0 KECCAK256 ADD SLOAD DUP5 GT ISZERO PUSH2 0x1348 JUMPI DUP1 PUSH1 0x1 ADD SWAP2 POP PUSH2 0x136E JUMP JUMPDEST PUSH1 0x1 ADD PUSH1 0x0 SWAP1 DUP2 MSTORE PUSH1 0xD PUSH1 0x20 MSTORE PUSH1 0x40 SWAP1 KECCAK256 SLOAD PUSH1 0x1 PUSH1 0x1 PUSH1 0xA0 SHL SUB AND SWAP4 POP PUSH2 0x9CF SWAP3 POP POP POP JUMP JUMPDEST POP PUSH2 0x12E1 JUMP JUMPDEST PUSH1 0x0 SWAP1 DUP2 MSTORE PUSH1 0xD PUSH1 0x20 MSTORE PUSH1 0x40 SWAP1 KECCAK256 SLOAD PUSH1 0x1 PUSH1 0x1 PUSH1 0xA0 SHL SUB AND SWAP3 POP POP POP SWAP1 JUMP JUMPDEST PUSH1 0x0 DUP1 PUSH2 0x139E PUSH2 0x15F7 JUMP JUMPDEST SWAP1 POP PUSH1 0x6 SLOAD DUP2 DUP2 PUSH2 0x13AB JUMPI INVALID JUMPDEST MOD SWAP1 POP PUSH1 0xC PUSH1 0x0 DUP2 SLOAD DUP2 LT PUSH2 0x13BC JUMPI INVALID JUMPDEST SWAP1 PUSH1 0x0 MSTORE PUSH1 0x20 PUSH1 0x0 KECCAK256 ADD SLOAD DUP2 LT ISZERO PUSH2 0x1409 JUMPI POP POP PUSH1 0x0 DUP1 MSTORE PUSH1 0xF PUSH1 0x20 MSTORE PUSH32 0xF4803E074BD026BAAF6ED2E288C9515F68C72FB7216EEBDD7CAE1718A53EC375 SLOAD PUSH1 0x1 PUSH1 0x1 PUSH1 0xA0 SHL SUB AND PUSH2 0x9CF JUMP JUMPDEST PUSH1 0xC SLOAD PUSH1 0x0 NOT ADD PUSH1 0x0 JUMPDEST DUP2 DUP2 GT PUSH2 0x14A6 JUMPI PUSH1 0x0 PUSH1 0x2 DUP3 DUP5 SUB DIV DUP3 ADD SWAP1 POP PUSH1 0xC DUP2 DUP2 SLOAD DUP2 LT PUSH2 0x1433 JUMPI INVALID JUMPDEST SWAP1 PUSH1 0x0 MSTORE PUSH1 0x20 PUSH1 0x0 KECCAK256 ADD SLOAD DUP5 LT ISZERO PUSH2 0x1450 JUMPI PUSH1 0x1 DUP2 SUB SWAP3 POP PUSH2 0x14A0 JUMP JUMPDEST PUSH1 0xC DUP2 DUP2 SLOAD DUP2 LT PUSH2 0x145D JUMPI INVALID JUMPDEST SWAP1 PUSH1 0x0 MSTORE PUSH1 0x20 PUSH1 0x0 KECCAK256 ADD SLOAD DUP5 GT ISZERO PUSH2 0x147A JUMPI DUP1 PUSH1 0x1 ADD SWAP2 POP PUSH2 0x14A0 JUMP JUMPDEST PUSH1 0x1 ADD PUSH1 0x0 SWAP1 DUP2 MSTORE PUSH1 0xF PUSH1 0x20 MSTORE PUSH1 0x40 SWAP1 KECCAK256 SLOAD PUSH1 0x1 PUSH1 0x1 PUSH1 0xA0 SHL SUB AND SWAP4 POP PUSH2 0x9CF SWAP3 POP POP POP JUMP JUMPDEST POP PUSH2 0x1413 JUMP JUMPDEST PUSH1 0x0 SWAP1 DUP2 MSTORE PUSH1 0xF PUSH1 0x20 MSTORE PUSH1 0x40 SWAP1 KECCAK256 SLOAD PUSH1 0x1 PUSH1 0x1 PUSH1 0xA0 SHL SUB AND SWAP3 POP POP POP SWAP1 JUMP JUMPDEST PUSH1 0x0 DUP1 PUSH2 0x14D0 PUSH2 0x15F7 JUMP JUMPDEST SWAP1 POP PUSH1 0x5 SLOAD DUP2 DUP2 PUSH2 0x14DD JUMPI INVALID JUMPDEST MOD SWAP1 POP PUSH1 0xB PUSH1 0x0 DUP2 SLOAD DUP2 LT PUSH2 0x14EE JUMPI INVALID JUMPDEST SWAP1 PUSH1 0x0 MSTORE PUSH1 0x20 PUSH1 0x0 KECCAK256 ADD SLOAD DUP2 LT ISZERO PUSH2 0x153B JUMPI POP POP PUSH1 0x0 DUP1 MSTORE PUSH1 0xE PUSH1 0x20 MSTORE PUSH32 0xE710864318D4A32F37D6CE54CB3FADBEF648DD12D8DBDF53973564D56B7F881C SLOAD PUSH1 0x1 PUSH1 0x1 PUSH1 0xA0 SHL SUB AND PUSH2 0x9CF JUMP JUMPDEST PUSH1 0xB SLOAD PUSH1 0x0 NOT ADD PUSH1 0x0 JUMPDEST DUP2 DUP2 GT PUSH2 0x15D8 JUMPI PUSH1 0x0 PUSH1 0x2 DUP3 DUP5 SUB DIV DUP3 ADD SWAP1 POP PUSH1 0xB DUP2 DUP2 SLOAD DUP2 LT PUSH2 0x1565 JUMPI INVALID JUMPDEST SWAP1 PUSH1 0x0 MSTORE PUSH1 0x20 PUSH1 0x0 KECCAK256 ADD SLOAD DUP5 LT ISZERO PUSH2 0x1582 JUMPI PUSH1 0x1 DUP2 SUB SWAP3 POP PUSH2 0x15D2 JUMP JUMPDEST PUSH1 0xB DUP2 DUP2 SLOAD DUP2 LT PUSH2 0x158F JUMPI INVALID JUMPDEST SWAP1 PUSH1 0x0 MSTORE PUSH1 0x20 PUSH1 0x0 KECCAK256 ADD SLOAD DUP5 GT ISZERO PUSH2 0x15AC JUMPI DUP1 PUSH1 0x1 ADD SWAP2 POP PUSH2 0x15D2 JUMP JUMPDEST PUSH1 0x1 ADD PUSH1 0x0 SWAP1 DUP2 MSTORE PUSH1 0xE PUSH1 0x20 MSTORE PUSH1 0x40 SWAP1 KECCAK256 SLOAD PUSH1 0x1 PUSH1 0x1 PUSH1 0xA0 SHL SUB AND SWAP4 POP PUSH2 0x9CF SWAP3 POP POP POP JUMP JUMPDEST POP PUSH2 0x1545 JUMP JUMPDEST PUSH1 0x0 SWAP1 DUP2 MSTORE PUSH1 0xE PUSH1 0x20 MSTORE PUSH1 0x40 SWAP1 KECCAK256 SLOAD PUSH1 0x1 PUSH1 0x1 PUSH1 0xA0 SHL SUB AND SWAP3 POP POP POP SWAP1 JUMP JUMPDEST PUSH1 0x3 SLOAD PUSH1 0x1 SLOAD PUSH1 0x2 SLOAD PUSH1 0x40 DUP1 MLOAD DIFFICULTY PUSH1 0x20 DUP1 DUP4 ADD SWAP2 SWAP1 SWAP2 MSTORE TIMESTAMP DUP3 DUP5 ADD MSTORE PUSH1 0x60 DUP3 ADD SWAP6 SWAP1 SWAP6 MSTORE PUSH1 0x80 DUP2 ADD SWAP4 SWAP1 SWAP4 MSTORE PUSH1 0xA0 DUP1 DUP5 ADD SWAP3 SWAP1 SWAP3 MSTORE DUP1 MLOAD DUP1 DUP5 SUB SWAP1 SWAP3 ADD DUP3 MSTORE PUSH1 0xC0 SWAP1 SWAP3 ADD SWAP1 SWAP2 MSTORE DUP1 MLOAD SWAP2 ADD KECCAK256 SWAP1 JUMP INVALID 0x4F PUSH24 0x6E61626C653A206E6577206F776E65722069732074686520 PUSH27 0x65726F2061646472657373A264697066735822122047C6C527F81B 0x4A 0x23 0x2F SUB 0xE9 0x4B 0xEC PUSH4 0xF0ECFEB5 0xCE 0xE5 0xFC SLOAD SSTORE DUP3 DUP10 0x24 CHAINID SMOD SLT SSTORE 0xF7 0xB1 PUSH5 0x736F6C6343 STOP MOD 0xC STOP CALLER ",
  "sha1": "ffda5c7896860fd218f98507799eb2d308c0c39f",
  "source": "// SPDX-License-Identifier: MIT\n\npragma solidity ^0.6.0;\n\nimport './Lossless.sol';\nimport '../../interfaces/ILendingPool.sol';\nimport '../../interfaces/IERC20.sol';\n//import \"../interfaces/IWAVAX.sol\";\n////import \"../interfaces/IBenqiUnitroller.sol\";\n//import \"../interfaces/IBenqiAVAXDelegator.sol\";\n//import '../access/Ownable.sol';\n//import \"../lib/ReentrancyGuard.sol\";\n\n\ncontract BenqiLossless is Lossless  {\n\n    address public token;\n    address public winner;\n    uint256 public sponsorDeposit;\n    BetSide public winningSide;\n    /// Aave Lending pool to deposit tokens\n    ILendingPool public lendingPool;\n    enum BetSide {OPEN, HOME, DRAW, AWAY}\n    \n    \n    \n    modifier correctBet(BetSide betSide) {\n        require(betSide == BetSide.HOME || betSide == BetSide.AWAY|| betSide == BetSide.DRAW, 'invalid argument for bestide');\n        _;\n    }\n    constructor(address _token, address _lendingPoolAddress, uint256 _matchStartBlock, uint256 _matchFinishBlock) public  Lossless(_matchStartBlock,_matchFinishBlock ){\n        status = MatchStatus.OPEN;\n        token = _token;\n        lendingPool = ILendingPool(_lendingPoolAddress);\n        winningSide = BetSide.OPEN;\n        winner = address(0);\n\n\n    }\n\n    function sponsor(uint256 amount) public payable isOpen() {\n        require(amount > 0, 'amount must be positif');\n        // uint256 allowance = IERC20(token).allowance(msg.sender, address(this));\n        // require(allowance >= amount, \"Check the token allowance\");\n        // IERC20(token).transferFrom(msg.sender, address(this), amount);\n        // IERC20(token).approve(address(lendingPool), amount);\n        lendingPool.deposit(token, amount, address(this),0);\n        totalDeposits += amount;\n        sponsorDeposit += amount;\n        playerBalance[msg.sender] += amount;\n\n\n    }\n    function placeBet(BetSide betSide, uint256 amount) public payable isOpen() correctBet(betSide) {\n        require(amount > 0, 'amount must be positif');\n        if (betSide==BetSide.HOME) {\n            placeHomeBet(amount);\n        } else if (betSide==BetSide.AWAY) {\n            placeAwayBet(amount);\n        } else if (betSide==BetSide.DRAW) {\n            placeDrawBet(amount);\n        }\n        \n        // placing money in aave logique\n        // uint256 allowance = IERC20(token).allowance(msg.sender, address(this));\n        // require(allowance >= amount, \"Check the token allowance\");\n        // IERC20(token).transferFrom(msg.sender, address(this), amount);\n        // IERC20(token).approve(address(lendingPool), amount);\n        // lendingPool.deposit(token, amount, address(this),0);\n        totalDeposits += amount;\n        playerBalance[msg.sender] += amount;\n\n    }\n    \n\n    function withdraw() public isPaid() {\n\n        require(playerBalance[msg.sender]>0 , 'balance is zero');\n        uint256 amount = playerBalance[msg.sender];\n        playerBalance[msg.sender] = 0;\n        // IERC20(token).transfer(msg.sender, amount);\n\n    }\n\n    function setMatchWinnerAndWithdrawFromPool(BetSide _winningSide) public  onlyOwner() correctBet(_winningSide) {\n        require(status == MatchStatus.OPEN, 'Cant settle this match');\n        status = MatchStatus.PAID;\n        winningSide = _winningSide;\n        // lendingPool.withdraw(token, type(uint).max, address(this));\n        findWinner();\n        payoutWinner(); \n\n    }\n\n    function findWinner() internal {\n        if(winningSide == BetSide.HOME) {\n            winner = findHomeWinner();\n        } else if (winningSide == BetSide.AWAY) {\n            winner = findAwayWinner();\n        } else if (winningSide == BetSide.DRAW) {\n            winner = findDrawWinner();\n        }\n    }\n\n    function payoutWinner() internal  {\n        uint256 winnerPayout = IERC20(token).balanceOf(address(this)) - totalDeposits;\n        playerBalance[winner] += winnerPayout;\n    }\n   \n  \n\n\n    \n   \n    \n     \n  \n\n  \n\n}",
  "sourcePath": "contracts/BenqiLossless.sol",
  "type": "contract"
}