{
  "abi": [
    {
      "inputs": [
        {
          "internalType": "address",
          "name": "_token",
          "type": "address"
        },
        {
          "internalType": "address",
          "name": "_lendingPoolAddress",
          "type": "address"
        },
        {
          "internalType": "uint256",
          "name": "_matchExpiryBlock",
          "type": "uint256"
        }
      ],
      "stateMutability": "nonpayable",
      "type": "constructor"
    },
    {
      "anonymous": false,
      "inputs": [],
      "name": "OrderExpired",
      "type": "event"
    },
    {
      "anonymous": false,
      "inputs": [
        {
          "indexed": true,
          "internalType": "address",
          "name": "previousOwner",
          "type": "address"
        },
        {
          "indexed": true,
          "internalType": "address",
          "name": "newOwner",
          "type": "address"
        }
      ],
      "name": "OwnershipTransferred",
      "type": "event"
    },
    {
      "inputs": [],
      "name": "awayBets",
      "outputs": [
        {
          "internalType": "uint256",
          "name": "",
          "type": "uint256"
        }
      ],
      "stateMutability": "view",
      "type": "function"
    },
    {
      "inputs": [
        {
          "internalType": "uint256",
          "name": "",
          "type": "uint256"
        }
      ],
      "name": "awayPointsAfterBet",
      "outputs": [
        {
          "internalType": "uint256",
          "name": "",
          "type": "uint256"
        }
      ],
      "stateMutability": "view",
      "type": "function"
    },
    {
      "inputs": [],
      "name": "awayPointsTrackers",
      "outputs": [
        {
          "internalType": "uint256",
          "name": "",
          "type": "uint256"
        }
      ],
      "stateMutability": "view",
      "type": "function"
    },
    {
      "inputs": [],
      "name": "homeBets",
      "outputs": [
        {
          "internalType": "uint256",
          "name": "",
          "type": "uint256"
        }
      ],
      "stateMutability": "view",
      "type": "function"
    },
    {
      "inputs": [
        {
          "internalType": "uint256",
          "name": "",
          "type": "uint256"
        }
      ],
      "name": "homePointsAfterBet",
      "outputs": [
        {
          "internalType": "uint256",
          "name": "",
          "type": "uint256"
        }
      ],
      "stateMutability": "view",
      "type": "function"
    },
    {
      "inputs": [],
      "name": "homePointsTrackers",
      "outputs": [
        {
          "internalType": "uint256",
          "name": "",
          "type": "uint256"
        }
      ],
      "stateMutability": "view",
      "type": "function"
    },
    {
      "inputs": [],
      "name": "matchExpiryBlock",
      "outputs": [
        {
          "internalType": "uint256",
          "name": "",
          "type": "uint256"
        }
      ],
      "stateMutability": "view",
      "type": "function"
    },
    {
      "inputs": [],
      "name": "owner",
      "outputs": [
        {
          "internalType": "address",
          "name": "",
          "type": "address"
        }
      ],
      "stateMutability": "view",
      "type": "function"
    },
    {
      "inputs": [
        {
          "internalType": "enum BenqiLossless.BetSide",
          "name": "betSide",
          "type": "uint8"
        },
        {
          "internalType": "uint256",
          "name": "amount",
          "type": "uint256"
        }
      ],
      "name": "placeBet",
      "outputs": [],
      "stateMutability": "payable",
      "type": "function"
    },
    {
      "inputs": [],
      "name": "renounceOwnership",
      "outputs": [],
      "stateMutability": "nonpayable",
      "type": "function"
    },
    {
      "inputs": [
        {
          "internalType": "enum BenqiLossless.BetSide",
          "name": "_winningSide",
          "type": "uint8"
        }
      ],
      "name": "setMatchWinnerAndWithdrawFromPool",
      "outputs": [],
      "stateMutability": "nonpayable",
      "type": "function"
    },
    {
      "inputs": [],
      "name": "status",
      "outputs": [
        {
          "internalType": "enum Lossless.MatchStatus",
          "name": "",
          "type": "uint8"
        }
      ],
      "stateMutability": "view",
      "type": "function"
    },
    {
      "inputs": [],
      "name": "token",
      "outputs": [
        {
          "internalType": "address",
          "name": "",
          "type": "address"
        }
      ],
      "stateMutability": "view",
      "type": "function"
    },
    {
      "inputs": [],
      "name": "totalDeposits",
      "outputs": [
        {
          "internalType": "uint256",
          "name": "",
          "type": "uint256"
        }
      ],
      "stateMutability": "view",
      "type": "function"
    },
    {
      "inputs": [
        {
          "internalType": "address",
          "name": "newOwner",
          "type": "address"
        }
      ],
      "name": "transferOwnership",
      "outputs": [],
      "stateMutability": "nonpayable",
      "type": "function"
    },
    {
      "inputs": [],
      "name": "winner",
      "outputs": [
        {
          "internalType": "address",
          "name": "",
          "type": "address"
        }
      ],
      "stateMutability": "view",
      "type": "function"
    },
    {
      "inputs": [],
      "name": "winningSide",
      "outputs": [
        {
          "internalType": "enum BenqiLossless.BetSide",
          "name": "",
          "type": "uint8"
        }
      ],
      "stateMutability": "view",
      "type": "function"
    },
    {
      "inputs": [],
      "name": "withdraw",
      "outputs": [],
      "stateMutability": "nonpayable",
      "type": "function"
    }
  ],
  "bytecode": "608060405234801561001057600080fd5b50604051610f5a380380610f5a8339818101604052606081101561003357600080fd5b508051602082015160409092015190919080600061004f6100e0565b600080546001600160a01b0319166001600160a01b0383169081178255604051929350917f8be0079c531659141344cd1fd0a4f28419497f9722a3daafe3b4186f6b6457e0908290a3506000805460ff60a01b191690556001555050600e80546001600160a01b0319166001600160a01b0392909216919091179055600f80546001600160a81b03191690556100e4565b3390565b610e67806100f36000396000f3fe6080604052600436106101095760003560e01c8063bf363c3e11610095578063dfbf53ae11610064578063dfbf53ae146102c3578063e8eaca75146102d8578063f2fde38b146102ed578063fbf0633814610320578063fc0c546a1461034557610109565b8063bf363c3e1461025e578063c003aef314610273578063c69de22414610288578063dcb3b30e1461029d57610109565b8063715018a6116100dc578063715018a6146101af5780637d882097146101c45780638da5cb5b146101d9578063ad9ed66e1461020a578063b3db3ced1461023457610109565b8063200d2ed21461010e57806336201e53146101445780633ccfd60b1461016b578063645a004714610182575b600080fd5b34801561011a57600080fd5b5061012361035a565b6040518082600381111561013357fe5b815260200191505060405180910390f35b34801561015057600080fd5b5061015961036a565b60408051918252519081900360200190f35b34801561017757600080fd5b50610180610370565b005b34801561018e57600080fd5b50610180600480360360208110156101a557600080fd5b503560ff16610432565b3480156101bb57600080fd5b506101806105bc565b3480156101d057600080fd5b5061015961067a565b3480156101e557600080fd5b506101ee610680565b604080516001600160a01b039092168252519081900360200190f35b34801561021657600080fd5b506101596004803603602081101561022d57600080fd5b5035610690565b34801561024057600080fd5b506101596004803603602081101561025757600080fd5b50356106ae565b34801561026a57600080fd5b506101596106bb565b34801561027f57600080fd5b506101596106c1565b34801561029457600080fd5b506101596106c7565b610180600480360360408110156102b357600080fd5b5060ff81351690602001356106cd565b3480156102cf57600080fd5b506101ee610898565b3480156102e457600080fd5b506101596108a7565b3480156102f957600080fd5b506101806004803603602081101561031057600080fd5b50356001600160a01b03166108ad565b34801561032c57600080fd5b506103356109c1565b6040518082600281111561013357fe5b34801561035157600080fd5b506101ee6109d1565b600054600160a01b900460ff1681565b60035481565b6003600054600160a01b900460ff16600381111561038a57fe5b146103cd576040805162461bcd60e51b815260206004820152600e60248201526d13585d18da081b9bdd081c185a5960921b604482015290519081900360640190fd5b336000908152600b6020526040902054610420576040805162461bcd60e51b815260206004820152600f60248201526e62616c616e6365206973207a65726f60881b604482015290519081900360640190fd5b336000908152600b6020526040812055565b6002600054600160a01b900460ff16600381111561044c57fe5b14610493576040805162461bcd60e51b815260206004820152601260248201527113585d18da081b9bdd08199a5b9a5cda195960721b604482015290519081900360640190fd5b61049b6109e0565b6001600160a01b03166104ac610680565b6001600160a01b031614610507576040805162461bcd60e51b815260206004820181905260248201527f4f776e61626c653a2063616c6c6572206973206e6f7420746865206f776e6572604482015290519081900360640190fd5b600181600281111561051557fe5b148061052c5750600281600281111561052a57fe5b145b610576576040805162461bcd60e51b81526020600482015260166024820152752bb937b7339034b7383aba103337b9103bb4b73732b960511b604482015290519081900360640190fd5b60008054600360a01b60ff60a01b1991821617909155600f8054839216600160a01b8360028111156105a457fe5b02179055506105b16109e4565b6105b9610a7a565b50565b6105c46109e0565b6001600160a01b03166105d5610680565b6001600160a01b031614610630576040805162461bcd60e51b815260206004820181905260248201527f4f776e61626c653a2063616c6c6572206973206e6f7420746865206f776e6572604482015290519081900360640190fd5b600080546040516001600160a01b03909116907f8be0079c531659141344cd1fd0a4f28419497f9722a3daafe3b4186f6b6457e0908390a3600080546001600160a01b0319169055565b60025481565b6000546001600160a01b03165b90565b6007818154811061069d57fe5b600091825260209091200154905081565b6008818154811061069d57fe5b60015481565b60045481565b60065481565b60008054600160a01b900460ff1660038111156106e657fe5b14610729576040805162461bcd60e51b815260206004820152600e60248201526d26b0ba31b4103737ba1037b832b760911b604482015290519081900360640190fd5b6001544310610774576040805162461bcd60e51b815260206004820152601260248201527143616e7420706c61636520626574206e6f7760701b604482015290519081900360640190fd5b600081116107c2576040805162461bcd60e51b815260206004820152601660248201527530b6b7bab73a1036bab9ba103132903837b9b4ba34b360511b604482015290519081900360640190fd5b60018260028111156107d057fe5b14806107e7575060028260028111156107e557fe5b145b610838576040805162461bcd60e51b815260206004820152601c60248201527f696e76616c696420617267756d656e7420666f72206265737469646500000000604482015290519081900360640190fd5b600182600281111561084657fe5b141561085a5761085581610a7c565b610877565b600282600281111561086857fe5b14156108775761087781610af5565b6002805482019055336000908152600b602052604090208054909101905550565b600f546001600160a01b031681565b60055481565b6108b56109e0565b6001600160a01b03166108c6610680565b6001600160a01b031614610921576040805162461bcd60e51b815260206004820181905260248201527f4f776e61626c653a2063616c6c6572206973206e6f7420746865206f776e6572604482015290519081900360640190fd5b6001600160a01b0381166109665760405162461bcd60e51b8152600401808060200182810382526026815260200180610e0c6026913960400191505060405180910390fd5b600080546040516001600160a01b03808516939216917f8be0079c531659141344cd1fd0a4f28419497f9722a3daafe3b4186f6b6457e091a3600080546001600160a01b0319166001600160a01b0392909216919091179055565b600f54600160a01b900460ff1681565b600e546001600160a01b031681565b3390565b6001600f54600160a01b900460ff1660028111156109fe57fe5b1415610a3157610a0c610b6e565b600f80546001600160a01b0319166001600160a01b0392909216919091179055610a7a565b6002600f54600160a01b900460ff166002811115610a4b57fe5b1415610a7a57610a59610ca0565b600f80546001600160a01b0319166001600160a01b03929092169190911790555b565b600154336000908152600c6020526040902080544392839003840290810190915560038054820190819055600554600780549091908110610ab957fe5b600091825260208083209091019290925560058054825260099092526040902080546001600160a01b0319163317905580546001019055505050565b600154336000908152600d6020526040902080544392839003840290810190915560048054820190819055600654600880549091908110610b3257fe5b6000918252602080832090910192909255600680548252600a9092526040902080546001600160a01b0319163317905580546001019055505050565b600080610b79610dd2565b90506003548181610b8657fe5b0690506007600081548110610b9757fe5b9060005260206000200154811015610be45750506000805260096020527fec8156718a8372b1db44bb411437d0870f3e3790d4a08526d024ce1b0b668f6b546001600160a01b031661068d565b6007546000190160015b818111610c815760006002828403048201905060078181548110610c0e57fe5b9060005260206000200154841015610c2b57600181039250610c7b565b60078181548110610c3857fe5b9060005260206000200154841115610c5557806001019150610c7b565b6001016000908152600960205260409020546001600160a01b0316935061068d92505050565b50610bee565b6000908152600960205260409020546001600160a01b03169250505090565b600080610cab610dd2565b90506004548181610cb857fe5b0690506008600081548110610cc957fe5b9060005260206000200154811015610d1657505060008052600a6020527f13da86008ba1c6922daee3e07db95305ef49ebced9f5467a0b8613fcc6b343e3546001600160a01b031661068d565b6008546000190160015b818111610db35760006002828403048201905060088181548110610d4057fe5b9060005260206000200154841015610d5d57600181039250610dad565b60088181548110610d6a57fe5b9060005260206000200154841115610d8757806001019150610dad565b6001016000908152600a60205260409020546001600160a01b0316935061068d92505050565b50610d20565b6000908152600a60205260409020546001600160a01b03169250505090565b6002546040805144602080830191909152428284015260608083019490945282518083039094018452608090910190915281519101209056fe4f776e61626c653a206e6577206f776e657220697320746865207a65726f2061646472657373a2646970667358221220b8ebfe8a252c187d8cd9c3874a840521bc70f0604ee3c00a2049d960bdbb764164736f6c634300060c0033",
  "bytecodeSha1": "470a0393e8f0e84f93b15af7f08f5fb263bfe592",
  "compiler": {
    "evm_version": "istanbul",
    "optimizer": {
      "enabled": true,
      "runs": 200
    },
    "version": "0.6.12+commit.27d51765"
  },
  "contractName": "BenqiLossless",
  "language": "Solidity",
  "natspec": {
    "kind": "dev",
    "methods": {
      "owner()": {
        "details": "Returns the address of the current owner."
      },
      "renounceOwnership()": {
        "details": "Leaves the contract without owner. It will not be possible to call `onlyOwner` functions anymore. Can only be called by the current owner. NOTE: Renouncing ownership will leave the contract without an owner, thereby removing any functionality that is only available to the owner."
      },
      "transferOwnership(address)": {
        "details": "Transfers ownership of the contract to a new account (`newOwner`). Can only be called by the current owner."
      }
    },
    "version": 1
  },
  "opcodes": "PUSH1 0x80 PUSH1 0x40 MSTORE PUSH1 0x4 CALLDATASIZE LT PUSH2 0x109 JUMPI PUSH1 0x0 CALLDATALOAD PUSH1 0xE0 SHR DUP1 PUSH4 0xBF363C3E GT PUSH2 0x95 JUMPI DUP1 PUSH4 0xDFBF53AE GT PUSH2 0x64 JUMPI DUP1 PUSH4 0xDFBF53AE EQ PUSH2 0x2C3 JUMPI DUP1 PUSH4 0xE8EACA75 EQ PUSH2 0x2D8 JUMPI DUP1 PUSH4 0xF2FDE38B EQ PUSH2 0x2ED JUMPI DUP1 PUSH4 0xFBF06338 EQ PUSH2 0x320 JUMPI DUP1 PUSH4 0xFC0C546A EQ PUSH2 0x345 JUMPI PUSH2 0x109 JUMP JUMPDEST DUP1 PUSH4 0xBF363C3E EQ PUSH2 0x25E JUMPI DUP1 PUSH4 0xC003AEF3 EQ PUSH2 0x273 JUMPI DUP1 PUSH4 0xC69DE224 EQ PUSH2 0x288 JUMPI DUP1 PUSH4 0xDCB3B30E EQ PUSH2 0x29D JUMPI PUSH2 0x109 JUMP JUMPDEST DUP1 PUSH4 0x715018A6 GT PUSH2 0xDC JUMPI DUP1 PUSH4 0x715018A6 EQ PUSH2 0x1AF JUMPI DUP1 PUSH4 0x7D882097 EQ PUSH2 0x1C4 JUMPI DUP1 PUSH4 0x8DA5CB5B EQ PUSH2 0x1D9 JUMPI DUP1 PUSH4 0xAD9ED66E EQ PUSH2 0x20A JUMPI DUP1 PUSH4 0xB3DB3CED EQ PUSH2 0x234 JUMPI PUSH2 0x109 JUMP JUMPDEST DUP1 PUSH4 0x200D2ED2 EQ PUSH2 0x10E JUMPI DUP1 PUSH4 0x36201E53 EQ PUSH2 0x144 JUMPI DUP1 PUSH4 0x3CCFD60B EQ PUSH2 0x16B JUMPI DUP1 PUSH4 0x645A0047 EQ PUSH2 0x182 JUMPI JUMPDEST PUSH1 0x0 DUP1 REVERT JUMPDEST CALLVALUE DUP1 ISZERO PUSH2 0x11A JUMPI PUSH1 0x0 DUP1 REVERT JUMPDEST POP PUSH2 0x123 PUSH2 0x35A JUMP JUMPDEST PUSH1 0x40 MLOAD DUP1 DUP3 PUSH1 0x3 DUP2 GT ISZERO PUSH2 0x133 JUMPI INVALID JUMPDEST DUP2 MSTORE PUSH1 0x20 ADD SWAP2 POP POP PUSH1 0x40 MLOAD DUP1 SWAP2 SUB SWAP1 RETURN JUMPDEST CALLVALUE DUP1 ISZERO PUSH2 0x150 JUMPI PUSH1 0x0 DUP1 REVERT JUMPDEST POP PUSH2 0x159 PUSH2 0x36A JUMP JUMPDEST PUSH1 0x40 DUP1 MLOAD SWAP2 DUP3 MSTORE MLOAD SWAP1 DUP2 SWAP1 SUB PUSH1 0x20 ADD SWAP1 RETURN JUMPDEST CALLVALUE DUP1 ISZERO PUSH2 0x177 JUMPI PUSH1 0x0 DUP1 REVERT JUMPDEST POP PUSH2 0x180 PUSH2 0x370 JUMP JUMPDEST STOP JUMPDEST CALLVALUE DUP1 ISZERO PUSH2 0x18E JUMPI PUSH1 0x0 DUP1 REVERT JUMPDEST POP PUSH2 0x180 PUSH1 0x4 DUP1 CALLDATASIZE SUB PUSH1 0x20 DUP2 LT ISZERO PUSH2 0x1A5 JUMPI PUSH1 0x0 DUP1 REVERT JUMPDEST POP CALLDATALOAD PUSH1 0xFF AND PUSH2 0x432 JUMP JUMPDEST CALLVALUE DUP1 ISZERO PUSH2 0x1BB JUMPI PUSH1 0x0 DUP1 REVERT JUMPDEST POP PUSH2 0x180 PUSH2 0x5BC JUMP JUMPDEST CALLVALUE DUP1 ISZERO PUSH2 0x1D0 JUMPI PUSH1 0x0 DUP1 REVERT JUMPDEST POP PUSH2 0x159 PUSH2 0x67A JUMP JUMPDEST CALLVALUE DUP1 ISZERO PUSH2 0x1E5 JUMPI PUSH1 0x0 DUP1 REVERT JUMPDEST POP PUSH2 0x1EE PUSH2 0x680 JUMP JUMPDEST PUSH1 0x40 DUP1 MLOAD PUSH1 0x1 PUSH1 0x1 PUSH1 0xA0 SHL SUB SWAP1 SWAP3 AND DUP3 MSTORE MLOAD SWAP1 DUP2 SWAP1 SUB PUSH1 0x20 ADD SWAP1 RETURN JUMPDEST CALLVALUE DUP1 ISZERO PUSH2 0x216 JUMPI PUSH1 0x0 DUP1 REVERT JUMPDEST POP PUSH2 0x159 PUSH1 0x4 DUP1 CALLDATASIZE SUB PUSH1 0x20 DUP2 LT ISZERO PUSH2 0x22D JUMPI PUSH1 0x0 DUP1 REVERT JUMPDEST POP CALLDATALOAD PUSH2 0x690 JUMP JUMPDEST CALLVALUE DUP1 ISZERO PUSH2 0x240 JUMPI PUSH1 0x0 DUP1 REVERT JUMPDEST POP PUSH2 0x159 PUSH1 0x4 DUP1 CALLDATASIZE SUB PUSH1 0x20 DUP2 LT ISZERO PUSH2 0x257 JUMPI PUSH1 0x0 DUP1 REVERT JUMPDEST POP CALLDATALOAD PUSH2 0x6AE JUMP JUMPDEST CALLVALUE DUP1 ISZERO PUSH2 0x26A JUMPI PUSH1 0x0 DUP1 REVERT JUMPDEST POP PUSH2 0x159 PUSH2 0x6BB JUMP JUMPDEST CALLVALUE DUP1 ISZERO PUSH2 0x27F JUMPI PUSH1 0x0 DUP1 REVERT JUMPDEST POP PUSH2 0x159 PUSH2 0x6C1 JUMP JUMPDEST CALLVALUE DUP1 ISZERO PUSH2 0x294 JUMPI PUSH1 0x0 DUP1 REVERT JUMPDEST POP PUSH2 0x159 PUSH2 0x6C7 JUMP JUMPDEST PUSH2 0x180 PUSH1 0x4 DUP1 CALLDATASIZE SUB PUSH1 0x40 DUP2 LT ISZERO PUSH2 0x2B3 JUMPI PUSH1 0x0 DUP1 REVERT JUMPDEST POP PUSH1 0xFF DUP2 CALLDATALOAD AND SWAP1 PUSH1 0x20 ADD CALLDATALOAD PUSH2 0x6CD JUMP JUMPDEST CALLVALUE DUP1 ISZERO PUSH2 0x2CF JUMPI PUSH1 0x0 DUP1 REVERT JUMPDEST POP PUSH2 0x1EE PUSH2 0x898 JUMP JUMPDEST CALLVALUE DUP1 ISZERO PUSH2 0x2E4 JUMPI PUSH1 0x0 DUP1 REVERT JUMPDEST POP PUSH2 0x159 PUSH2 0x8A7 JUMP JUMPDEST CALLVALUE DUP1 ISZERO PUSH2 0x2F9 JUMPI PUSH1 0x0 DUP1 REVERT JUMPDEST POP PUSH2 0x180 PUSH1 0x4 DUP1 CALLDATASIZE SUB PUSH1 0x20 DUP2 LT ISZERO PUSH2 0x310 JUMPI PUSH1 0x0 DUP1 REVERT JUMPDEST POP CALLDATALOAD PUSH1 0x1 PUSH1 0x1 PUSH1 0xA0 SHL SUB AND PUSH2 0x8AD JUMP JUMPDEST CALLVALUE DUP1 ISZERO PUSH2 0x32C JUMPI PUSH1 0x0 DUP1 REVERT JUMPDEST POP PUSH2 0x335 PUSH2 0x9C1 JUMP JUMPDEST PUSH1 0x40 MLOAD DUP1 DUP3 PUSH1 0x2 DUP2 GT ISZERO PUSH2 0x133 JUMPI INVALID JUMPDEST CALLVALUE DUP1 ISZERO PUSH2 0x351 JUMPI PUSH1 0x0 DUP1 REVERT JUMPDEST POP PUSH2 0x1EE PUSH2 0x9D1 JUMP JUMPDEST PUSH1 0x0 SLOAD PUSH1 0x1 PUSH1 0xA0 SHL SWAP1 DIV PUSH1 0xFF AND DUP2 JUMP JUMPDEST PUSH1 0x3 SLOAD DUP2 JUMP JUMPDEST PUSH1 0x3 PUSH1 0x0 SLOAD PUSH1 0x1 PUSH1 0xA0 SHL SWAP1 DIV PUSH1 0xFF AND PUSH1 0x3 DUP2 GT ISZERO PUSH2 0x38A JUMPI INVALID JUMPDEST EQ PUSH2 0x3CD JUMPI PUSH1 0x40 DUP1 MLOAD PUSH3 0x461BCD PUSH1 0xE5 SHL DUP2 MSTORE PUSH1 0x20 PUSH1 0x4 DUP3 ADD MSTORE PUSH1 0xE PUSH1 0x24 DUP3 ADD MSTORE PUSH14 0x13585D18DA081B9BDD081C185A59 PUSH1 0x92 SHL PUSH1 0x44 DUP3 ADD MSTORE SWAP1 MLOAD SWAP1 DUP2 SWAP1 SUB PUSH1 0x64 ADD SWAP1 REVERT JUMPDEST CALLER PUSH1 0x0 SWAP1 DUP2 MSTORE PUSH1 0xB PUSH1 0x20 MSTORE PUSH1 0x40 SWAP1 KECCAK256 SLOAD PUSH2 0x420 JUMPI PUSH1 0x40 DUP1 MLOAD PUSH3 0x461BCD PUSH1 0xE5 SHL DUP2 MSTORE PUSH1 0x20 PUSH1 0x4 DUP3 ADD MSTORE PUSH1 0xF PUSH1 0x24 DUP3 ADD MSTORE PUSH15 0x62616C616E6365206973207A65726F PUSH1 0x88 SHL PUSH1 0x44 DUP3 ADD MSTORE SWAP1 MLOAD SWAP1 DUP2 SWAP1 SUB PUSH1 0x64 ADD SWAP1 REVERT JUMPDEST CALLER PUSH1 0x0 SWAP1 DUP2 MSTORE PUSH1 0xB PUSH1 0x20 MSTORE PUSH1 0x40 DUP2 KECCAK256 SSTORE JUMP JUMPDEST PUSH1 0x2 PUSH1 0x0 SLOAD PUSH1 0x1 PUSH1 0xA0 SHL SWAP1 DIV PUSH1 0xFF AND PUSH1 0x3 DUP2 GT ISZERO PUSH2 0x44C JUMPI INVALID JUMPDEST EQ PUSH2 0x493 JUMPI PUSH1 0x40 DUP1 MLOAD PUSH3 0x461BCD PUSH1 0xE5 SHL DUP2 MSTORE PUSH1 0x20 PUSH1 0x4 DUP3 ADD MSTORE PUSH1 0x12 PUSH1 0x24 DUP3 ADD MSTORE PUSH18 0x13585D18DA081B9BDD08199A5B9A5CDA1959 PUSH1 0x72 SHL PUSH1 0x44 DUP3 ADD MSTORE SWAP1 MLOAD SWAP1 DUP2 SWAP1 SUB PUSH1 0x64 ADD SWAP1 REVERT JUMPDEST PUSH2 0x49B PUSH2 0x9E0 JUMP JUMPDEST PUSH1 0x1 PUSH1 0x1 PUSH1 0xA0 SHL SUB AND PUSH2 0x4AC PUSH2 0x680 JUMP JUMPDEST PUSH1 0x1 PUSH1 0x1 PUSH1 0xA0 SHL SUB AND EQ PUSH2 0x507 JUMPI PUSH1 0x40 DUP1 MLOAD PUSH3 0x461BCD PUSH1 0xE5 SHL DUP2 MSTORE PUSH1 0x20 PUSH1 0x4 DUP3 ADD DUP2 SWAP1 MSTORE PUSH1 0x24 DUP3 ADD MSTORE PUSH32 0x4F776E61626C653A2063616C6C6572206973206E6F7420746865206F776E6572 PUSH1 0x44 DUP3 ADD MSTORE SWAP1 MLOAD SWAP1 DUP2 SWAP1 SUB PUSH1 0x64 ADD SWAP1 REVERT JUMPDEST PUSH1 0x1 DUP2 PUSH1 0x2 DUP2 GT ISZERO PUSH2 0x515 JUMPI INVALID JUMPDEST EQ DUP1 PUSH2 0x52C JUMPI POP PUSH1 0x2 DUP2 PUSH1 0x2 DUP2 GT ISZERO PUSH2 0x52A JUMPI INVALID JUMPDEST EQ JUMPDEST PUSH2 0x576 JUMPI PUSH1 0x40 DUP1 MLOAD PUSH3 0x461BCD PUSH1 0xE5 SHL DUP2 MSTORE PUSH1 0x20 PUSH1 0x4 DUP3 ADD MSTORE PUSH1 0x16 PUSH1 0x24 DUP3 ADD MSTORE PUSH22 0x2BB937B7339034B7383ABA103337B9103BB4B73732B9 PUSH1 0x51 SHL PUSH1 0x44 DUP3 ADD MSTORE SWAP1 MLOAD SWAP1 DUP2 SWAP1 SUB PUSH1 0x64 ADD SWAP1 REVERT JUMPDEST PUSH1 0x0 DUP1 SLOAD PUSH1 0x3 PUSH1 0xA0 SHL PUSH1 0xFF PUSH1 0xA0 SHL NOT SWAP2 DUP3 AND OR SWAP1 SWAP2 SSTORE PUSH1 0xF DUP1 SLOAD DUP4 SWAP3 AND PUSH1 0x1 PUSH1 0xA0 SHL DUP4 PUSH1 0x2 DUP2 GT ISZERO PUSH2 0x5A4 JUMPI INVALID JUMPDEST MUL OR SWAP1 SSTORE POP PUSH2 0x5B1 PUSH2 0x9E4 JUMP JUMPDEST PUSH2 0x5B9 PUSH2 0xA7A JUMP JUMPDEST POP JUMP JUMPDEST PUSH2 0x5C4 PUSH2 0x9E0 JUMP JUMPDEST PUSH1 0x1 PUSH1 0x1 PUSH1 0xA0 SHL SUB AND PUSH2 0x5D5 PUSH2 0x680 JUMP JUMPDEST PUSH1 0x1 PUSH1 0x1 PUSH1 0xA0 SHL SUB AND EQ PUSH2 0x630 JUMPI PUSH1 0x40 DUP1 MLOAD PUSH3 0x461BCD PUSH1 0xE5 SHL DUP2 MSTORE PUSH1 0x20 PUSH1 0x4 DUP3 ADD DUP2 SWAP1 MSTORE PUSH1 0x24 DUP3 ADD MSTORE PUSH32 0x4F776E61626C653A2063616C6C6572206973206E6F7420746865206F776E6572 PUSH1 0x44 DUP3 ADD MSTORE SWAP1 MLOAD SWAP1 DUP2 SWAP1 SUB PUSH1 0x64 ADD SWAP1 REVERT JUMPDEST PUSH1 0x0 DUP1 SLOAD PUSH1 0x40 MLOAD PUSH1 0x1 PUSH1 0x1 PUSH1 0xA0 SHL SUB SWAP1 SWAP2 AND SWAP1 PUSH32 0x8BE0079C531659141344CD1FD0A4F28419497F9722A3DAAFE3B4186F6B6457E0 SWAP1 DUP4 SWAP1 LOG3 PUSH1 0x0 DUP1 SLOAD PUSH1 0x1 PUSH1 0x1 PUSH1 0xA0 SHL SUB NOT AND SWAP1 SSTORE JUMP JUMPDEST PUSH1 0x2 SLOAD DUP2 JUMP JUMPDEST PUSH1 0x0 SLOAD PUSH1 0x1 PUSH1 0x1 PUSH1 0xA0 SHL SUB AND JUMPDEST SWAP1 JUMP JUMPDEST PUSH1 0x7 DUP2 DUP2 SLOAD DUP2 LT PUSH2 0x69D JUMPI INVALID JUMPDEST PUSH1 0x0 SWAP2 DUP3 MSTORE PUSH1 0x20 SWAP1 SWAP2 KECCAK256 ADD SLOAD SWAP1 POP DUP2 JUMP JUMPDEST PUSH1 0x8 DUP2 DUP2 SLOAD DUP2 LT PUSH2 0x69D JUMPI INVALID JUMPDEST PUSH1 0x1 SLOAD DUP2 JUMP JUMPDEST PUSH1 0x4 SLOAD DUP2 JUMP JUMPDEST PUSH1 0x6 SLOAD DUP2 JUMP JUMPDEST PUSH1 0x0 DUP1 SLOAD PUSH1 0x1 PUSH1 0xA0 SHL SWAP1 DIV PUSH1 0xFF AND PUSH1 0x3 DUP2 GT ISZERO PUSH2 0x6E6 JUMPI INVALID JUMPDEST EQ PUSH2 0x729 JUMPI PUSH1 0x40 DUP1 MLOAD PUSH3 0x461BCD PUSH1 0xE5 SHL DUP2 MSTORE PUSH1 0x20 PUSH1 0x4 DUP3 ADD MSTORE PUSH1 0xE PUSH1 0x24 DUP3 ADD MSTORE PUSH14 0x26B0BA31B4103737BA1037B832B7 PUSH1 0x91 SHL PUSH1 0x44 DUP3 ADD MSTORE SWAP1 MLOAD SWAP1 DUP2 SWAP1 SUB PUSH1 0x64 ADD SWAP1 REVERT JUMPDEST PUSH1 0x1 SLOAD NUMBER LT PUSH2 0x774 JUMPI PUSH1 0x40 DUP1 MLOAD PUSH3 0x461BCD PUSH1 0xE5 SHL DUP2 MSTORE PUSH1 0x20 PUSH1 0x4 DUP3 ADD MSTORE PUSH1 0x12 PUSH1 0x24 DUP3 ADD MSTORE PUSH18 0x43616E7420706C61636520626574206E6F77 PUSH1 0x70 SHL PUSH1 0x44 DUP3 ADD MSTORE SWAP1 MLOAD SWAP1 DUP2 SWAP1 SUB PUSH1 0x64 ADD SWAP1 REVERT JUMPDEST PUSH1 0x0 DUP2 GT PUSH2 0x7C2 JUMPI PUSH1 0x40 DUP1 MLOAD PUSH3 0x461BCD PUSH1 0xE5 SHL DUP2 MSTORE PUSH1 0x20 PUSH1 0x4 DUP3 ADD MSTORE PUSH1 0x16 PUSH1 0x24 DUP3 ADD MSTORE PUSH22 0x30B6B7BAB73A1036BAB9BA103132903837B9B4BA34B3 PUSH1 0x51 SHL PUSH1 0x44 DUP3 ADD MSTORE SWAP1 MLOAD SWAP1 DUP2 SWAP1 SUB PUSH1 0x64 ADD SWAP1 REVERT JUMPDEST PUSH1 0x1 DUP3 PUSH1 0x2 DUP2 GT ISZERO PUSH2 0x7D0 JUMPI INVALID JUMPDEST EQ DUP1 PUSH2 0x7E7 JUMPI POP PUSH1 0x2 DUP3 PUSH1 0x2 DUP2 GT ISZERO PUSH2 0x7E5 JUMPI INVALID JUMPDEST EQ JUMPDEST PUSH2 0x838 JUMPI PUSH1 0x40 DUP1 MLOAD PUSH3 0x461BCD PUSH1 0xE5 SHL DUP2 MSTORE PUSH1 0x20 PUSH1 0x4 DUP3 ADD MSTORE PUSH1 0x1C PUSH1 0x24 DUP3 ADD MSTORE PUSH32 0x696E76616C696420617267756D656E7420666F72206265737469646500000000 PUSH1 0x44 DUP3 ADD MSTORE SWAP1 MLOAD SWAP1 DUP2 SWAP1 SUB PUSH1 0x64 ADD SWAP1 REVERT JUMPDEST PUSH1 0x1 DUP3 PUSH1 0x2 DUP2 GT ISZERO PUSH2 0x846 JUMPI INVALID JUMPDEST EQ ISZERO PUSH2 0x85A JUMPI PUSH2 0x855 DUP2 PUSH2 0xA7C JUMP JUMPDEST PUSH2 0x877 JUMP JUMPDEST PUSH1 0x2 DUP3 PUSH1 0x2 DUP2 GT ISZERO PUSH2 0x868 JUMPI INVALID JUMPDEST EQ ISZERO PUSH2 0x877 JUMPI PUSH2 0x877 DUP2 PUSH2 0xAF5 JUMP JUMPDEST PUSH1 0x2 DUP1 SLOAD DUP3 ADD SWAP1 SSTORE CALLER PUSH1 0x0 SWAP1 DUP2 MSTORE PUSH1 0xB PUSH1 0x20 MSTORE PUSH1 0x40 SWAP1 KECCAK256 DUP1 SLOAD SWAP1 SWAP2 ADD SWAP1 SSTORE POP JUMP JUMPDEST PUSH1 0xF SLOAD PUSH1 0x1 PUSH1 0x1 PUSH1 0xA0 SHL SUB AND DUP2 JUMP JUMPDEST PUSH1 0x5 SLOAD DUP2 JUMP JUMPDEST PUSH2 0x8B5 PUSH2 0x9E0 JUMP JUMPDEST PUSH1 0x1 PUSH1 0x1 PUSH1 0xA0 SHL SUB AND PUSH2 0x8C6 PUSH2 0x680 JUMP JUMPDEST PUSH1 0x1 PUSH1 0x1 PUSH1 0xA0 SHL SUB AND EQ PUSH2 0x921 JUMPI PUSH1 0x40 DUP1 MLOAD PUSH3 0x461BCD PUSH1 0xE5 SHL DUP2 MSTORE PUSH1 0x20 PUSH1 0x4 DUP3 ADD DUP2 SWAP1 MSTORE PUSH1 0x24 DUP3 ADD MSTORE PUSH32 0x4F776E61626C653A2063616C6C6572206973206E6F7420746865206F776E6572 PUSH1 0x44 DUP3 ADD MSTORE SWAP1 MLOAD SWAP1 DUP2 SWAP1 SUB PUSH1 0x64 ADD SWAP1 REVERT JUMPDEST PUSH1 0x1 PUSH1 0x1 PUSH1 0xA0 SHL SUB DUP2 AND PUSH2 0x966 JUMPI PUSH1 0x40 MLOAD PUSH3 0x461BCD PUSH1 0xE5 SHL DUP2 MSTORE PUSH1 0x4 ADD DUP1 DUP1 PUSH1 0x20 ADD DUP3 DUP2 SUB DUP3 MSTORE PUSH1 0x26 DUP2 MSTORE PUSH1 0x20 ADD DUP1 PUSH2 0xE0C PUSH1 0x26 SWAP2 CODECOPY PUSH1 0x40 ADD SWAP2 POP POP PUSH1 0x40 MLOAD DUP1 SWAP2 SUB SWAP1 REVERT JUMPDEST PUSH1 0x0 DUP1 SLOAD PUSH1 0x40 MLOAD PUSH1 0x1 PUSH1 0x1 PUSH1 0xA0 SHL SUB DUP1 DUP6 AND SWAP4 SWAP3 AND SWAP2 PUSH32 0x8BE0079C531659141344CD1FD0A4F28419497F9722A3DAAFE3B4186F6B6457E0 SWAP2 LOG3 PUSH1 0x0 DUP1 SLOAD PUSH1 0x1 PUSH1 0x1 PUSH1 0xA0 SHL SUB NOT AND PUSH1 0x1 PUSH1 0x1 PUSH1 0xA0 SHL SUB SWAP3 SWAP1 SWAP3 AND SWAP2 SWAP1 SWAP2 OR SWAP1 SSTORE JUMP JUMPDEST PUSH1 0xF SLOAD PUSH1 0x1 PUSH1 0xA0 SHL SWAP1 DIV PUSH1 0xFF AND DUP2 JUMP JUMPDEST PUSH1 0xE SLOAD PUSH1 0x1 PUSH1 0x1 PUSH1 0xA0 SHL SUB AND DUP2 JUMP JUMPDEST CALLER SWAP1 JUMP JUMPDEST PUSH1 0x1 PUSH1 0xF SLOAD PUSH1 0x1 PUSH1 0xA0 SHL SWAP1 DIV PUSH1 0xFF AND PUSH1 0x2 DUP2 GT ISZERO PUSH2 0x9FE JUMPI INVALID JUMPDEST EQ ISZERO PUSH2 0xA31 JUMPI PUSH2 0xA0C PUSH2 0xB6E JUMP JUMPDEST PUSH1 0xF DUP1 SLOAD PUSH1 0x1 PUSH1 0x1 PUSH1 0xA0 SHL SUB NOT AND PUSH1 0x1 PUSH1 0x1 PUSH1 0xA0 SHL SUB SWAP3 SWAP1 SWAP3 AND SWAP2 SWAP1 SWAP2 OR SWAP1 SSTORE PUSH2 0xA7A JUMP JUMPDEST PUSH1 0x2 PUSH1 0xF SLOAD PUSH1 0x1 PUSH1 0xA0 SHL SWAP1 DIV PUSH1 0xFF AND PUSH1 0x2 DUP2 GT ISZERO PUSH2 0xA4B JUMPI INVALID JUMPDEST EQ ISZERO PUSH2 0xA7A JUMPI PUSH2 0xA59 PUSH2 0xCA0 JUMP JUMPDEST PUSH1 0xF DUP1 SLOAD PUSH1 0x1 PUSH1 0x1 PUSH1 0xA0 SHL SUB NOT AND PUSH1 0x1 PUSH1 0x1 PUSH1 0xA0 SHL SUB SWAP3 SWAP1 SWAP3 AND SWAP2 SWAP1 SWAP2 OR SWAP1 SSTORE JUMPDEST JUMP JUMPDEST PUSH1 0x1 SLOAD CALLER PUSH1 0x0 SWAP1 DUP2 MSTORE PUSH1 0xC PUSH1 0x20 MSTORE PUSH1 0x40 SWAP1 KECCAK256 DUP1 SLOAD NUMBER SWAP3 DUP4 SWAP1 SUB DUP5 MUL SWAP1 DUP2 ADD SWAP1 SWAP2 SSTORE PUSH1 0x3 DUP1 SLOAD DUP3 ADD SWAP1 DUP2 SWAP1 SSTORE PUSH1 0x5 SLOAD PUSH1 0x7 DUP1 SLOAD SWAP1 SWAP2 SWAP1 DUP2 LT PUSH2 0xAB9 JUMPI INVALID JUMPDEST PUSH1 0x0 SWAP2 DUP3 MSTORE PUSH1 0x20 DUP1 DUP4 KECCAK256 SWAP1 SWAP2 ADD SWAP3 SWAP1 SWAP3 SSTORE PUSH1 0x5 DUP1 SLOAD DUP3 MSTORE PUSH1 0x9 SWAP1 SWAP3 MSTORE PUSH1 0x40 SWAP1 KECCAK256 DUP1 SLOAD PUSH1 0x1 PUSH1 0x1 PUSH1 0xA0 SHL SUB NOT AND CALLER OR SWAP1 SSTORE DUP1 SLOAD PUSH1 0x1 ADD SWAP1 SSTORE POP POP POP JUMP JUMPDEST PUSH1 0x1 SLOAD CALLER PUSH1 0x0 SWAP1 DUP2 MSTORE PUSH1 0xD PUSH1 0x20 MSTORE PUSH1 0x40 SWAP1 KECCAK256 DUP1 SLOAD NUMBER SWAP3 DUP4 SWAP1 SUB DUP5 MUL SWAP1 DUP2 ADD SWAP1 SWAP2 SSTORE PUSH1 0x4 DUP1 SLOAD DUP3 ADD SWAP1 DUP2 SWAP1 SSTORE PUSH1 0x6 SLOAD PUSH1 0x8 DUP1 SLOAD SWAP1 SWAP2 SWAP1 DUP2 LT PUSH2 0xB32 JUMPI INVALID JUMPDEST PUSH1 0x0 SWAP2 DUP3 MSTORE PUSH1 0x20 DUP1 DUP4 KECCAK256 SWAP1 SWAP2 ADD SWAP3 SWAP1 SWAP3 SSTORE PUSH1 0x6 DUP1 SLOAD DUP3 MSTORE PUSH1 0xA SWAP1 SWAP3 MSTORE PUSH1 0x40 SWAP1 KECCAK256 DUP1 SLOAD PUSH1 0x1 PUSH1 0x1 PUSH1 0xA0 SHL SUB NOT AND CALLER OR SWAP1 SSTORE DUP1 SLOAD PUSH1 0x1 ADD SWAP1 SSTORE POP POP POP JUMP JUMPDEST PUSH1 0x0 DUP1 PUSH2 0xB79 PUSH2 0xDD2 JUMP JUMPDEST SWAP1 POP PUSH1 0x3 SLOAD DUP2 DUP2 PUSH2 0xB86 JUMPI INVALID JUMPDEST MOD SWAP1 POP PUSH1 0x7 PUSH1 0x0 DUP2 SLOAD DUP2 LT PUSH2 0xB97 JUMPI INVALID JUMPDEST SWAP1 PUSH1 0x0 MSTORE PUSH1 0x20 PUSH1 0x0 KECCAK256 ADD SLOAD DUP2 LT ISZERO PUSH2 0xBE4 JUMPI POP POP PUSH1 0x0 DUP1 MSTORE PUSH1 0x9 PUSH1 0x20 MSTORE PUSH32 0xEC8156718A8372B1DB44BB411437D0870F3E3790D4A08526D024CE1B0B668F6B SLOAD PUSH1 0x1 PUSH1 0x1 PUSH1 0xA0 SHL SUB AND PUSH2 0x68D JUMP JUMPDEST PUSH1 0x7 SLOAD PUSH1 0x0 NOT ADD PUSH1 0x1 JUMPDEST DUP2 DUP2 GT PUSH2 0xC81 JUMPI PUSH1 0x0 PUSH1 0x2 DUP3 DUP5 SUB DIV DUP3 ADD SWAP1 POP PUSH1 0x7 DUP2 DUP2 SLOAD DUP2 LT PUSH2 0xC0E JUMPI INVALID JUMPDEST SWAP1 PUSH1 0x0 MSTORE PUSH1 0x20 PUSH1 0x0 KECCAK256 ADD SLOAD DUP5 LT ISZERO PUSH2 0xC2B JUMPI PUSH1 0x1 DUP2 SUB SWAP3 POP PUSH2 0xC7B JUMP JUMPDEST PUSH1 0x7 DUP2 DUP2 SLOAD DUP2 LT PUSH2 0xC38 JUMPI INVALID JUMPDEST SWAP1 PUSH1 0x0 MSTORE PUSH1 0x20 PUSH1 0x0 KECCAK256 ADD SLOAD DUP5 GT ISZERO PUSH2 0xC55 JUMPI DUP1 PUSH1 0x1 ADD SWAP2 POP PUSH2 0xC7B JUMP JUMPDEST PUSH1 0x1 ADD PUSH1 0x0 SWAP1 DUP2 MSTORE PUSH1 0x9 PUSH1 0x20 MSTORE PUSH1 0x40 SWAP1 KECCAK256 SLOAD PUSH1 0x1 PUSH1 0x1 PUSH1 0xA0 SHL SUB AND SWAP4 POP PUSH2 0x68D SWAP3 POP POP POP JUMP JUMPDEST POP PUSH2 0xBEE JUMP JUMPDEST PUSH1 0x0 SWAP1 DUP2 MSTORE PUSH1 0x9 PUSH1 0x20 MSTORE PUSH1 0x40 SWAP1 KECCAK256 SLOAD PUSH1 0x1 PUSH1 0x1 PUSH1 0xA0 SHL SUB AND SWAP3 POP POP POP SWAP1 JUMP JUMPDEST PUSH1 0x0 DUP1 PUSH2 0xCAB PUSH2 0xDD2 JUMP JUMPDEST SWAP1 POP PUSH1 0x4 SLOAD DUP2 DUP2 PUSH2 0xCB8 JUMPI INVALID JUMPDEST MOD SWAP1 POP PUSH1 0x8 PUSH1 0x0 DUP2 SLOAD DUP2 LT PUSH2 0xCC9 JUMPI INVALID JUMPDEST SWAP1 PUSH1 0x0 MSTORE PUSH1 0x20 PUSH1 0x0 KECCAK256 ADD SLOAD DUP2 LT ISZERO PUSH2 0xD16 JUMPI POP POP PUSH1 0x0 DUP1 MSTORE PUSH1 0xA PUSH1 0x20 MSTORE PUSH32 0x13DA86008BA1C6922DAEE3E07DB95305EF49EBCED9F5467A0B8613FCC6B343E3 SLOAD PUSH1 0x1 PUSH1 0x1 PUSH1 0xA0 SHL SUB AND PUSH2 0x68D JUMP JUMPDEST PUSH1 0x8 SLOAD PUSH1 0x0 NOT ADD PUSH1 0x1 JUMPDEST DUP2 DUP2 GT PUSH2 0xDB3 JUMPI PUSH1 0x0 PUSH1 0x2 DUP3 DUP5 SUB DIV DUP3 ADD SWAP1 POP PUSH1 0x8 DUP2 DUP2 SLOAD DUP2 LT PUSH2 0xD40 JUMPI INVALID JUMPDEST SWAP1 PUSH1 0x0 MSTORE PUSH1 0x20 PUSH1 0x0 KECCAK256 ADD SLOAD DUP5 LT ISZERO PUSH2 0xD5D JUMPI PUSH1 0x1 DUP2 SUB SWAP3 POP PUSH2 0xDAD JUMP JUMPDEST PUSH1 0x8 DUP2 DUP2 SLOAD DUP2 LT PUSH2 0xD6A JUMPI INVALID JUMPDEST SWAP1 PUSH1 0x0 MSTORE PUSH1 0x20 PUSH1 0x0 KECCAK256 ADD SLOAD DUP5 GT ISZERO PUSH2 0xD87 JUMPI DUP1 PUSH1 0x1 ADD SWAP2 POP PUSH2 0xDAD JUMP JUMPDEST PUSH1 0x1 ADD PUSH1 0x0 SWAP1 DUP2 MSTORE PUSH1 0xA PUSH1 0x20 MSTORE PUSH1 0x40 SWAP1 KECCAK256 SLOAD PUSH1 0x1 PUSH1 0x1 PUSH1 0xA0 SHL SUB AND SWAP4 POP PUSH2 0x68D SWAP3 POP POP POP JUMP JUMPDEST POP PUSH2 0xD20 JUMP JUMPDEST PUSH1 0x0 SWAP1 DUP2 MSTORE PUSH1 0xA PUSH1 0x20 MSTORE PUSH1 0x40 SWAP1 KECCAK256 SLOAD PUSH1 0x1 PUSH1 0x1 PUSH1 0xA0 SHL SUB AND SWAP3 POP POP POP SWAP1 JUMP JUMPDEST PUSH1 0x2 SLOAD PUSH1 0x40 DUP1 MLOAD DIFFICULTY PUSH1 0x20 DUP1 DUP4 ADD SWAP2 SWAP1 SWAP2 MSTORE TIMESTAMP DUP3 DUP5 ADD MSTORE PUSH1 0x60 DUP1 DUP4 ADD SWAP5 SWAP1 SWAP5 MSTORE DUP3 MLOAD DUP1 DUP4 SUB SWAP1 SWAP5 ADD DUP5 MSTORE PUSH1 0x80 SWAP1 SWAP2 ADD SWAP1 SWAP2 MSTORE DUP2 MLOAD SWAP2 ADD KECCAK256 SWAP1 JUMP INVALID 0x4F PUSH24 0x6E61626C653A206E6577206F776E65722069732074686520 PUSH27 0x65726F2061646472657373A2646970667358221220B8EBFE8A252C XOR PUSH30 0x8CD9C3874A840521BC70F0604EE3C00A2049D960BDBB764164736F6C6343 STOP MOD 0xC STOP CALLER ",
  "sha1": "2e2ecb56ae4e7131537ded995aee9747924f4bdb",
  "source": "// SPDX-License-Identifier: MIT\n\npragma solidity ^0.6.0;\n\nimport './Lossless.sol';\nimport '../../interfaces/ILendingPool.sol';\nimport '../../interfaces/IERC20.sol';\n//import \"../interfaces/IWAVAX.sol\";\n////import \"../interfaces/IBenqiUnitroller.sol\";\n//import \"../interfaces/IBenqiAVAXDelegator.sol\";\n//import '../access/Ownable.sol';\n//import \"../lib/ReentrancyGuard.sol\";\n\n\ncontract BenqiLossless is Lossless  {\n\n    address public token;\n    address public winner;\n    BetSide public winningSide;\n    /// Benqi Lending pool to deposit tokens\n    //ILendingPool public lendingPool;\n    enum BetSide {OPEN, HOME, AWAY}\n    \n    \n    \n  \n     constructor(address _token, address _lendingPoolAddress, uint256 _matchExpiryBlock) public  Lossless(_matchExpiryBlock){\n        status = MatchStatus.OPEN;\n        token = _token;\n        //lendingPool = ILendingPool(_lendingPoolAddress);\n        winningSide = BetSide.OPEN;\n        winner = address(0);\n\n\n    }\n\n    function placeBet(BetSide betSide, uint256 amount) public payable isOpen() {\n        require(amount > 0, 'amount must be positif');\n        require(betSide == BetSide.HOME || betSide ==BetSide.AWAY, 'invalid argument for bestide');\n\n        if (betSide==BetSide.HOME) {\n            placeHomeBet(amount);\n        } else if (betSide==BetSide.AWAY) {\n            placeAwayBet(amount);\n        } \n        totalDeposits += amount;\n        playerBalance[msg.sender] += amount;\n        // placing money in benqi logique\n        \n\n    }\n    \n\n    function withdraw() public isPaid() {\n\n        require(playerBalance[msg.sender]>0 , 'balance is zero');\n        uint256 amount = playerBalance[msg.sender];\n        playerBalance[msg.sender] = 0;\n        //IERC20(token).transfer(msg.sender, amount);\n\n    }\n\n    function setMatchWinnerAndWithdrawFromPool(BetSide _winningSide) public isFinished() onlyOwner() {\n        require(_winningSide == BetSide.HOME || _winningSide == BetSide.AWAY, 'Wrong input for winner');\n        status = MatchStatus.PAID;\n        winningSide = _winningSide;\n        //lendingPool.withdraw(token, type(uint).max, address(this));\n        findWinner();\n        payoutWinner(); \n\n    }\n\n    function findWinner() internal {\n        if(winningSide == BetSide.HOME) {\n            winner = findHomeWinner();\n        } else if (winningSide == BetSide.AWAY) {\n            winner = findAwayWinner();\n        }\n    }\n\n    function payoutWinner() internal  {\n        //uint256 winnerPayout = IERC20(token).balanceOf(address(this)) - totalDeposits;\n        //playerBalance[winner] += winnerPayout;\n    }\n   \n  \n\n\n    \n   \n    \n     \n  \n\n  \n\n}",
  "sourcePath": "contracts/BenqiLossless.sol",
  "type": "contract"
}