{
  "abi": [
    {
      "inputs": [
        {
          "internalType": "uint256",
          "name": "_matchStartBlock",
          "type": "uint256"
        },
        {
          "internalType": "uint256",
          "name": "_matchFinishBlock",
          "type": "uint256"
        }
      ],
      "stateMutability": "nonpayable",
      "type": "constructor"
    },
    {
      "anonymous": false,
      "inputs": [
        {
          "indexed": true,
          "internalType": "address",
          "name": "previousOwner",
          "type": "address"
        },
        {
          "indexed": true,
          "internalType": "address",
          "name": "newOwner",
          "type": "address"
        }
      ],
      "name": "OwnershipTransferred",
      "type": "event"
    },
    {
      "inputs": [
        {
          "internalType": "uint256",
          "name": "",
          "type": "uint256"
        }
      ],
      "name": "awayBetPlacer",
      "outputs": [
        {
          "internalType": "address",
          "name": "",
          "type": "address"
        }
      ],
      "stateMutability": "view",
      "type": "function"
    },
    {
      "inputs": [],
      "name": "awayBets",
      "outputs": [
        {
          "internalType": "uint256",
          "name": "",
          "type": "uint256"
        }
      ],
      "stateMutability": "view",
      "type": "function"
    },
    {
      "inputs": [
        {
          "internalType": "uint256",
          "name": "",
          "type": "uint256"
        }
      ],
      "name": "awayPointsAfterBet",
      "outputs": [
        {
          "internalType": "uint256",
          "name": "",
          "type": "uint256"
        }
      ],
      "stateMutability": "view",
      "type": "function"
    },
    {
      "inputs": [],
      "name": "awayPointsTrackers",
      "outputs": [
        {
          "internalType": "uint256",
          "name": "",
          "type": "uint256"
        }
      ],
      "stateMutability": "view",
      "type": "function"
    },
    {
      "inputs": [
        {
          "internalType": "uint256",
          "name": "",
          "type": "uint256"
        }
      ],
      "name": "drawBetPlacer",
      "outputs": [
        {
          "internalType": "address",
          "name": "",
          "type": "address"
        }
      ],
      "stateMutability": "view",
      "type": "function"
    },
    {
      "inputs": [],
      "name": "drawBets",
      "outputs": [
        {
          "internalType": "uint256",
          "name": "",
          "type": "uint256"
        }
      ],
      "stateMutability": "view",
      "type": "function"
    },
    {
      "inputs": [
        {
          "internalType": "uint256",
          "name": "",
          "type": "uint256"
        }
      ],
      "name": "drawPointsAfterBet",
      "outputs": [
        {
          "internalType": "uint256",
          "name": "",
          "type": "uint256"
        }
      ],
      "stateMutability": "view",
      "type": "function"
    },
    {
      "inputs": [],
      "name": "drawPointsTrackers",
      "outputs": [
        {
          "internalType": "uint256",
          "name": "",
          "type": "uint256"
        }
      ],
      "stateMutability": "view",
      "type": "function"
    },
    {
      "inputs": [
        {
          "internalType": "uint256",
          "name": "",
          "type": "uint256"
        }
      ],
      "name": "homeBetPlacer",
      "outputs": [
        {
          "internalType": "address",
          "name": "",
          "type": "address"
        }
      ],
      "stateMutability": "view",
      "type": "function"
    },
    {
      "inputs": [],
      "name": "homeBets",
      "outputs": [
        {
          "internalType": "uint256",
          "name": "",
          "type": "uint256"
        }
      ],
      "stateMutability": "view",
      "type": "function"
    },
    {
      "inputs": [
        {
          "internalType": "uint256",
          "name": "",
          "type": "uint256"
        }
      ],
      "name": "homePointsAfterBet",
      "outputs": [
        {
          "internalType": "uint256",
          "name": "",
          "type": "uint256"
        }
      ],
      "stateMutability": "view",
      "type": "function"
    },
    {
      "inputs": [],
      "name": "homePointsTrackers",
      "outputs": [
        {
          "internalType": "uint256",
          "name": "",
          "type": "uint256"
        }
      ],
      "stateMutability": "view",
      "type": "function"
    },
    {
      "inputs": [],
      "name": "matchFinishBlock",
      "outputs": [
        {
          "internalType": "uint256",
          "name": "",
          "type": "uint256"
        }
      ],
      "stateMutability": "view",
      "type": "function"
    },
    {
      "inputs": [],
      "name": "matchStartBlock",
      "outputs": [
        {
          "internalType": "uint256",
          "name": "",
          "type": "uint256"
        }
      ],
      "stateMutability": "view",
      "type": "function"
    },
    {
      "inputs": [],
      "name": "owner",
      "outputs": [
        {
          "internalType": "address",
          "name": "",
          "type": "address"
        }
      ],
      "stateMutability": "view",
      "type": "function"
    },
    {
      "inputs": [
        {
          "internalType": "address",
          "name": "",
          "type": "address"
        }
      ],
      "name": "playerAwayPoints",
      "outputs": [
        {
          "internalType": "uint256",
          "name": "",
          "type": "uint256"
        }
      ],
      "stateMutability": "view",
      "type": "function"
    },
    {
      "inputs": [
        {
          "internalType": "address",
          "name": "",
          "type": "address"
        }
      ],
      "name": "playerBalance",
      "outputs": [
        {
          "internalType": "uint256",
          "name": "",
          "type": "uint256"
        }
      ],
      "stateMutability": "view",
      "type": "function"
    },
    {
      "inputs": [
        {
          "internalType": "address",
          "name": "",
          "type": "address"
        }
      ],
      "name": "playerDrawPoints",
      "outputs": [
        {
          "internalType": "uint256",
          "name": "",
          "type": "uint256"
        }
      ],
      "stateMutability": "view",
      "type": "function"
    },
    {
      "inputs": [
        {
          "internalType": "address",
          "name": "",
          "type": "address"
        }
      ],
      "name": "playerHomePoints",
      "outputs": [
        {
          "internalType": "uint256",
          "name": "",
          "type": "uint256"
        }
      ],
      "stateMutability": "view",
      "type": "function"
    },
    {
      "inputs": [],
      "name": "renounceOwnership",
      "outputs": [],
      "stateMutability": "nonpayable",
      "type": "function"
    },
    {
      "inputs": [],
      "name": "status",
      "outputs": [
        {
          "internalType": "enum Lossless.MatchStatus",
          "name": "",
          "type": "uint8"
        }
      ],
      "stateMutability": "view",
      "type": "function"
    },
    {
      "inputs": [],
      "name": "totalDeposits",
      "outputs": [
        {
          "internalType": "uint256",
          "name": "",
          "type": "uint256"
        }
      ],
      "stateMutability": "view",
      "type": "function"
    },
    {
      "inputs": [
        {
          "internalType": "address",
          "name": "newOwner",
          "type": "address"
        }
      ],
      "name": "transferOwnership",
      "outputs": [],
      "stateMutability": "nonpayable",
      "type": "function"
    }
  ],
  "bytecode": "608060405234801561001057600080fd5b506040516107853803806107858339818101604052604081101561003357600080fd5b50805160209091015160006100466100ab565b600080546001600160a01b0319166001600160a01b0383169081178255604051929350917f8be0079c531659141344cd1fd0a4f28419497f9722a3daafe3b4186f6b6457e0908290a3506000805460ff60a01b191690556001919091556002556100af565b3390565b6106c7806100be6000396000f3fe608060405234801561001057600080fd5b506004361061014d5760003560e01c8063ad9ed66e116100c3578063c734f0c31161007c578063c734f0c3146102ee578063c7b8cad5146102f6578063d9d521601461031c578063e11f3f7714610339578063e8eaca7514610341578063f2fde38b146103495761014d565b8063ad9ed66e14610276578063b168ba4b14610293578063b3db3ced1461029b578063b810fe8d146102b8578063c003aef3146102de578063c69de224146102e65761014d565b8063715018a611610115578063715018a6146101e957806379db8a13146101f35780637d882097146102105780638da5cb5b1461021857806391c54ca41461023c578063aa236df4146102595761014d565b80630873d9ec1461015257806309126f081461016c578063200d2ed21461019257806336201e53146101bb5780634e33f83b146101c3575b600080fd5b61015a61036f565b60408051918252519081900360200190f35b61015a6004803603602081101561018257600080fd5b50356001600160a01b0316610375565b61019a610387565b604051808260018111156101aa57fe5b815260200191505060405180910390f35b61015a610397565b61015a600480360360208110156101d957600080fd5b50356001600160a01b031661039d565b6101f16103af565b005b61015a6004803603602081101561020957600080fd5b503561046d565b61015a61048b565b610220610491565b604080516001600160a01b039092168252519081900360200190f35b6102206004803603602081101561025257600080fd5b50356104a0565b6102206004803603602081101561026f57600080fd5b50356104bb565b61015a6004803603602081101561028c57600080fd5b50356104d6565b61015a6104e3565b61015a600480360360208110156102b157600080fd5b50356104e9565b61015a600480360360208110156102ce57600080fd5b50356001600160a01b03166104f6565b61015a610508565b61015a61050e565b61015a610514565b61015a6004803603602081101561030c57600080fd5b50356001600160a01b031661051a565b6102206004803603602081101561033257600080fd5b503561052c565b61015a610547565b61015a61054d565b6101f16004803603602081101561035f57600080fd5b50356001600160a01b0316610553565b60095481565b60116020526000908152604090205481565b600054600160a01b900460ff1681565b60045481565b60106020526000908152604090205481565b6103b7610667565b6001600160a01b03166103c8610491565b6001600160a01b031614610423576040805162461bcd60e51b815260206004820181905260248201527f4f776e61626c653a2063616c6c6572206973206e6f7420746865206f776e6572604482015290519081900360640190fd5b600080546040516001600160a01b03909116907f8be0079c531659141344cd1fd0a4f28419497f9722a3daafe3b4186f6b6457e0908390a3600080546001600160a01b0319169055565b600b818154811061047a57fe5b600091825260209091200154905081565b60035481565b6000546001600160a01b031690565b600f602052600090815260409020546001600160a01b031681565b600e602052600090815260409020546001600160a01b031681565b600a818154811061047a57fe5b60015481565b600c818154811061047a57fe5b60136020526000908152604090205481565b60065481565b60085481565b60025481565b60126020526000908152604090205481565b600d602052600090815260409020546001600160a01b031681565b60055481565b60075481565b61055b610667565b6001600160a01b031661056c610491565b6001600160a01b0316146105c7576040805162461bcd60e51b815260206004820181905260248201527f4f776e61626c653a2063616c6c6572206973206e6f7420746865206f776e6572604482015290519081900360640190fd5b6001600160a01b03811661060c5760405162461bcd60e51b815260040180806020018281038252602681526020018061066c6026913960400191505060405180910390fd5b600080546040516001600160a01b03808516939216917f8be0079c531659141344cd1fd0a4f28419497f9722a3daafe3b4186f6b6457e091a3600080546001600160a01b0319166001600160a01b0392909216919091179055565b339056fe4f776e61626c653a206e6577206f776e657220697320746865207a65726f2061646472657373a2646970667358221220bb94646b8107967828071458513bc40ada139a9a3fcc544ebcd81fd2609fbf6864736f6c634300060c0033",
  "bytecodeSha1": "fc26b0d7f78700c7fdc0f8ca8666c917be0ef002",
  "compiler": {
    "evm_version": "istanbul",
    "optimizer": {
      "enabled": true,
      "runs": 200
    },
    "version": "0.6.12+commit.27d51765"
  },
  "contractName": "Lossless",
  "language": "Solidity",
  "natspec": {
    "kind": "dev",
    "methods": {
      "owner()": {
        "details": "Returns the address of the current owner."
      },
      "renounceOwnership()": {
        "details": "Leaves the contract without owner. It will not be possible to call `onlyOwner` functions anymore. Can only be called by the current owner. NOTE: Renouncing ownership will leave the contract without an owner, thereby removing any functionality that is only available to the owner."
      },
      "transferOwnership(address)": {
        "details": "Transfers ownership of the contract to a new account (`newOwner`). Can only be called by the current owner."
      }
    },
    "version": 1
  },
  "opcodes": "PUSH1 0x80 PUSH1 0x40 MSTORE CALLVALUE DUP1 ISZERO PUSH2 0x10 JUMPI PUSH1 0x0 DUP1 REVERT JUMPDEST POP PUSH1 0x4 CALLDATASIZE LT PUSH2 0x14D JUMPI PUSH1 0x0 CALLDATALOAD PUSH1 0xE0 SHR DUP1 PUSH4 0xAD9ED66E GT PUSH2 0xC3 JUMPI DUP1 PUSH4 0xC734F0C3 GT PUSH2 0x7C JUMPI DUP1 PUSH4 0xC734F0C3 EQ PUSH2 0x2EE JUMPI DUP1 PUSH4 0xC7B8CAD5 EQ PUSH2 0x2F6 JUMPI DUP1 PUSH4 0xD9D52160 EQ PUSH2 0x31C JUMPI DUP1 PUSH4 0xE11F3F77 EQ PUSH2 0x339 JUMPI DUP1 PUSH4 0xE8EACA75 EQ PUSH2 0x341 JUMPI DUP1 PUSH4 0xF2FDE38B EQ PUSH2 0x349 JUMPI PUSH2 0x14D JUMP JUMPDEST DUP1 PUSH4 0xAD9ED66E EQ PUSH2 0x276 JUMPI DUP1 PUSH4 0xB168BA4B EQ PUSH2 0x293 JUMPI DUP1 PUSH4 0xB3DB3CED EQ PUSH2 0x29B JUMPI DUP1 PUSH4 0xB810FE8D EQ PUSH2 0x2B8 JUMPI DUP1 PUSH4 0xC003AEF3 EQ PUSH2 0x2DE JUMPI DUP1 PUSH4 0xC69DE224 EQ PUSH2 0x2E6 JUMPI PUSH2 0x14D JUMP JUMPDEST DUP1 PUSH4 0x715018A6 GT PUSH2 0x115 JUMPI DUP1 PUSH4 0x715018A6 EQ PUSH2 0x1E9 JUMPI DUP1 PUSH4 0x79DB8A13 EQ PUSH2 0x1F3 JUMPI DUP1 PUSH4 0x7D882097 EQ PUSH2 0x210 JUMPI DUP1 PUSH4 0x8DA5CB5B EQ PUSH2 0x218 JUMPI DUP1 PUSH4 0x91C54CA4 EQ PUSH2 0x23C JUMPI DUP1 PUSH4 0xAA236DF4 EQ PUSH2 0x259 JUMPI PUSH2 0x14D JUMP JUMPDEST DUP1 PUSH4 0x873D9EC EQ PUSH2 0x152 JUMPI DUP1 PUSH4 0x9126F08 EQ PUSH2 0x16C JUMPI DUP1 PUSH4 0x200D2ED2 EQ PUSH2 0x192 JUMPI DUP1 PUSH4 0x36201E53 EQ PUSH2 0x1BB JUMPI DUP1 PUSH4 0x4E33F83B EQ PUSH2 0x1C3 JUMPI JUMPDEST PUSH1 0x0 DUP1 REVERT JUMPDEST PUSH2 0x15A PUSH2 0x36F JUMP JUMPDEST PUSH1 0x40 DUP1 MLOAD SWAP2 DUP3 MSTORE MLOAD SWAP1 DUP2 SWAP1 SUB PUSH1 0x20 ADD SWAP1 RETURN JUMPDEST PUSH2 0x15A PUSH1 0x4 DUP1 CALLDATASIZE SUB PUSH1 0x20 DUP2 LT ISZERO PUSH2 0x182 JUMPI PUSH1 0x0 DUP1 REVERT JUMPDEST POP CALLDATALOAD PUSH1 0x1 PUSH1 0x1 PUSH1 0xA0 SHL SUB AND PUSH2 0x375 JUMP JUMPDEST PUSH2 0x19A PUSH2 0x387 JUMP JUMPDEST PUSH1 0x40 MLOAD DUP1 DUP3 PUSH1 0x1 DUP2 GT ISZERO PUSH2 0x1AA JUMPI INVALID JUMPDEST DUP2 MSTORE PUSH1 0x20 ADD SWAP2 POP POP PUSH1 0x40 MLOAD DUP1 SWAP2 SUB SWAP1 RETURN JUMPDEST PUSH2 0x15A PUSH2 0x397 JUMP JUMPDEST PUSH2 0x15A PUSH1 0x4 DUP1 CALLDATASIZE SUB PUSH1 0x20 DUP2 LT ISZERO PUSH2 0x1D9 JUMPI PUSH1 0x0 DUP1 REVERT JUMPDEST POP CALLDATALOAD PUSH1 0x1 PUSH1 0x1 PUSH1 0xA0 SHL SUB AND PUSH2 0x39D JUMP JUMPDEST PUSH2 0x1F1 PUSH2 0x3AF JUMP JUMPDEST STOP JUMPDEST PUSH2 0x15A PUSH1 0x4 DUP1 CALLDATASIZE SUB PUSH1 0x20 DUP2 LT ISZERO PUSH2 0x209 JUMPI PUSH1 0x0 DUP1 REVERT JUMPDEST POP CALLDATALOAD PUSH2 0x46D JUMP JUMPDEST PUSH2 0x15A PUSH2 0x48B JUMP JUMPDEST PUSH2 0x220 PUSH2 0x491 JUMP JUMPDEST PUSH1 0x40 DUP1 MLOAD PUSH1 0x1 PUSH1 0x1 PUSH1 0xA0 SHL SUB SWAP1 SWAP3 AND DUP3 MSTORE MLOAD SWAP1 DUP2 SWAP1 SUB PUSH1 0x20 ADD SWAP1 RETURN JUMPDEST PUSH2 0x220 PUSH1 0x4 DUP1 CALLDATASIZE SUB PUSH1 0x20 DUP2 LT ISZERO PUSH2 0x252 JUMPI PUSH1 0x0 DUP1 REVERT JUMPDEST POP CALLDATALOAD PUSH2 0x4A0 JUMP JUMPDEST PUSH2 0x220 PUSH1 0x4 DUP1 CALLDATASIZE SUB PUSH1 0x20 DUP2 LT ISZERO PUSH2 0x26F JUMPI PUSH1 0x0 DUP1 REVERT JUMPDEST POP CALLDATALOAD PUSH2 0x4BB JUMP JUMPDEST PUSH2 0x15A PUSH1 0x4 DUP1 CALLDATASIZE SUB PUSH1 0x20 DUP2 LT ISZERO PUSH2 0x28C JUMPI PUSH1 0x0 DUP1 REVERT JUMPDEST POP CALLDATALOAD PUSH2 0x4D6 JUMP JUMPDEST PUSH2 0x15A PUSH2 0x4E3 JUMP JUMPDEST PUSH2 0x15A PUSH1 0x4 DUP1 CALLDATASIZE SUB PUSH1 0x20 DUP2 LT ISZERO PUSH2 0x2B1 JUMPI PUSH1 0x0 DUP1 REVERT JUMPDEST POP CALLDATALOAD PUSH2 0x4E9 JUMP JUMPDEST PUSH2 0x15A PUSH1 0x4 DUP1 CALLDATASIZE SUB PUSH1 0x20 DUP2 LT ISZERO PUSH2 0x2CE JUMPI PUSH1 0x0 DUP1 REVERT JUMPDEST POP CALLDATALOAD PUSH1 0x1 PUSH1 0x1 PUSH1 0xA0 SHL SUB AND PUSH2 0x4F6 JUMP JUMPDEST PUSH2 0x15A PUSH2 0x508 JUMP JUMPDEST PUSH2 0x15A PUSH2 0x50E JUMP JUMPDEST PUSH2 0x15A PUSH2 0x514 JUMP JUMPDEST PUSH2 0x15A PUSH1 0x4 DUP1 CALLDATASIZE SUB PUSH1 0x20 DUP2 LT ISZERO PUSH2 0x30C JUMPI PUSH1 0x0 DUP1 REVERT JUMPDEST POP CALLDATALOAD PUSH1 0x1 PUSH1 0x1 PUSH1 0xA0 SHL SUB AND PUSH2 0x51A JUMP JUMPDEST PUSH2 0x220 PUSH1 0x4 DUP1 CALLDATASIZE SUB PUSH1 0x20 DUP2 LT ISZERO PUSH2 0x332 JUMPI PUSH1 0x0 DUP1 REVERT JUMPDEST POP CALLDATALOAD PUSH2 0x52C JUMP JUMPDEST PUSH2 0x15A PUSH2 0x547 JUMP JUMPDEST PUSH2 0x15A PUSH2 0x54D JUMP JUMPDEST PUSH2 0x1F1 PUSH1 0x4 DUP1 CALLDATASIZE SUB PUSH1 0x20 DUP2 LT ISZERO PUSH2 0x35F JUMPI PUSH1 0x0 DUP1 REVERT JUMPDEST POP CALLDATALOAD PUSH1 0x1 PUSH1 0x1 PUSH1 0xA0 SHL SUB AND PUSH2 0x553 JUMP JUMPDEST PUSH1 0x9 SLOAD DUP2 JUMP JUMPDEST PUSH1 0x11 PUSH1 0x20 MSTORE PUSH1 0x0 SWAP1 DUP2 MSTORE PUSH1 0x40 SWAP1 KECCAK256 SLOAD DUP2 JUMP JUMPDEST PUSH1 0x0 SLOAD PUSH1 0x1 PUSH1 0xA0 SHL SWAP1 DIV PUSH1 0xFF AND DUP2 JUMP JUMPDEST PUSH1 0x4 SLOAD DUP2 JUMP JUMPDEST PUSH1 0x10 PUSH1 0x20 MSTORE PUSH1 0x0 SWAP1 DUP2 MSTORE PUSH1 0x40 SWAP1 KECCAK256 SLOAD DUP2 JUMP JUMPDEST PUSH2 0x3B7 PUSH2 0x667 JUMP JUMPDEST PUSH1 0x1 PUSH1 0x1 PUSH1 0xA0 SHL SUB AND PUSH2 0x3C8 PUSH2 0x491 JUMP JUMPDEST PUSH1 0x1 PUSH1 0x1 PUSH1 0xA0 SHL SUB AND EQ PUSH2 0x423 JUMPI PUSH1 0x40 DUP1 MLOAD PUSH3 0x461BCD PUSH1 0xE5 SHL DUP2 MSTORE PUSH1 0x20 PUSH1 0x4 DUP3 ADD DUP2 SWAP1 MSTORE PUSH1 0x24 DUP3 ADD MSTORE PUSH32 0x4F776E61626C653A2063616C6C6572206973206E6F7420746865206F776E6572 PUSH1 0x44 DUP3 ADD MSTORE SWAP1 MLOAD SWAP1 DUP2 SWAP1 SUB PUSH1 0x64 ADD SWAP1 REVERT JUMPDEST PUSH1 0x0 DUP1 SLOAD PUSH1 0x40 MLOAD PUSH1 0x1 PUSH1 0x1 PUSH1 0xA0 SHL SUB SWAP1 SWAP2 AND SWAP1 PUSH32 0x8BE0079C531659141344CD1FD0A4F28419497F9722A3DAAFE3B4186F6B6457E0 SWAP1 DUP4 SWAP1 LOG3 PUSH1 0x0 DUP1 SLOAD PUSH1 0x1 PUSH1 0x1 PUSH1 0xA0 SHL SUB NOT AND SWAP1 SSTORE JUMP JUMPDEST PUSH1 0xB DUP2 DUP2 SLOAD DUP2 LT PUSH2 0x47A JUMPI INVALID JUMPDEST PUSH1 0x0 SWAP2 DUP3 MSTORE PUSH1 0x20 SWAP1 SWAP2 KECCAK256 ADD SLOAD SWAP1 POP DUP2 JUMP JUMPDEST PUSH1 0x3 SLOAD DUP2 JUMP JUMPDEST PUSH1 0x0 SLOAD PUSH1 0x1 PUSH1 0x1 PUSH1 0xA0 SHL SUB AND SWAP1 JUMP JUMPDEST PUSH1 0xF PUSH1 0x20 MSTORE PUSH1 0x0 SWAP1 DUP2 MSTORE PUSH1 0x40 SWAP1 KECCAK256 SLOAD PUSH1 0x1 PUSH1 0x1 PUSH1 0xA0 SHL SUB AND DUP2 JUMP JUMPDEST PUSH1 0xE PUSH1 0x20 MSTORE PUSH1 0x0 SWAP1 DUP2 MSTORE PUSH1 0x40 SWAP1 KECCAK256 SLOAD PUSH1 0x1 PUSH1 0x1 PUSH1 0xA0 SHL SUB AND DUP2 JUMP JUMPDEST PUSH1 0xA DUP2 DUP2 SLOAD DUP2 LT PUSH2 0x47A JUMPI INVALID JUMPDEST PUSH1 0x1 SLOAD DUP2 JUMP JUMPDEST PUSH1 0xC DUP2 DUP2 SLOAD DUP2 LT PUSH2 0x47A JUMPI INVALID JUMPDEST PUSH1 0x13 PUSH1 0x20 MSTORE PUSH1 0x0 SWAP1 DUP2 MSTORE PUSH1 0x40 SWAP1 KECCAK256 SLOAD DUP2 JUMP JUMPDEST PUSH1 0x6 SLOAD DUP2 JUMP JUMPDEST PUSH1 0x8 SLOAD DUP2 JUMP JUMPDEST PUSH1 0x2 SLOAD DUP2 JUMP JUMPDEST PUSH1 0x12 PUSH1 0x20 MSTORE PUSH1 0x0 SWAP1 DUP2 MSTORE PUSH1 0x40 SWAP1 KECCAK256 SLOAD DUP2 JUMP JUMPDEST PUSH1 0xD PUSH1 0x20 MSTORE PUSH1 0x0 SWAP1 DUP2 MSTORE PUSH1 0x40 SWAP1 KECCAK256 SLOAD PUSH1 0x1 PUSH1 0x1 PUSH1 0xA0 SHL SUB AND DUP2 JUMP JUMPDEST PUSH1 0x5 SLOAD DUP2 JUMP JUMPDEST PUSH1 0x7 SLOAD DUP2 JUMP JUMPDEST PUSH2 0x55B PUSH2 0x667 JUMP JUMPDEST PUSH1 0x1 PUSH1 0x1 PUSH1 0xA0 SHL SUB AND PUSH2 0x56C PUSH2 0x491 JUMP JUMPDEST PUSH1 0x1 PUSH1 0x1 PUSH1 0xA0 SHL SUB AND EQ PUSH2 0x5C7 JUMPI PUSH1 0x40 DUP1 MLOAD PUSH3 0x461BCD PUSH1 0xE5 SHL DUP2 MSTORE PUSH1 0x20 PUSH1 0x4 DUP3 ADD DUP2 SWAP1 MSTORE PUSH1 0x24 DUP3 ADD MSTORE PUSH32 0x4F776E61626C653A2063616C6C6572206973206E6F7420746865206F776E6572 PUSH1 0x44 DUP3 ADD MSTORE SWAP1 MLOAD SWAP1 DUP2 SWAP1 SUB PUSH1 0x64 ADD SWAP1 REVERT JUMPDEST PUSH1 0x1 PUSH1 0x1 PUSH1 0xA0 SHL SUB DUP2 AND PUSH2 0x60C JUMPI PUSH1 0x40 MLOAD PUSH3 0x461BCD PUSH1 0xE5 SHL DUP2 MSTORE PUSH1 0x4 ADD DUP1 DUP1 PUSH1 0x20 ADD DUP3 DUP2 SUB DUP3 MSTORE PUSH1 0x26 DUP2 MSTORE PUSH1 0x20 ADD DUP1 PUSH2 0x66C PUSH1 0x26 SWAP2 CODECOPY PUSH1 0x40 ADD SWAP2 POP POP PUSH1 0x40 MLOAD DUP1 SWAP2 SUB SWAP1 REVERT JUMPDEST PUSH1 0x0 DUP1 SLOAD PUSH1 0x40 MLOAD PUSH1 0x1 PUSH1 0x1 PUSH1 0xA0 SHL SUB DUP1 DUP6 AND SWAP4 SWAP3 AND SWAP2 PUSH32 0x8BE0079C531659141344CD1FD0A4F28419497F9722A3DAAFE3B4186F6B6457E0 SWAP2 LOG3 PUSH1 0x0 DUP1 SLOAD PUSH1 0x1 PUSH1 0x1 PUSH1 0xA0 SHL SUB NOT AND PUSH1 0x1 PUSH1 0x1 PUSH1 0xA0 SHL SUB SWAP3 SWAP1 SWAP3 AND SWAP2 SWAP1 SWAP2 OR SWAP1 SSTORE JUMP JUMPDEST CALLER SWAP1 JUMP INVALID 0x4F PUSH24 0x6E61626C653A206E6577206F776E65722069732074686520 PUSH27 0x65726F2061646472657373A2646970667358221220BB94646B8107 SWAP7 PUSH25 0x28071458513BC40ADA139A9A3FCC544EBCD81FD2609FBF6864 PUSH20 0x6F6C634300060C00330000000000000000000000 ",
  "sha1": "b54227d586ff41f684a50b0cbc846d8449960ddd",
  "source": "// SPDX-License-Identifier: MIT\n\npragma solidity ^0.6.0;\n\nimport './access/Ownable.sol';\n\n\ncontract Lossless is Ownable  {\n\n    MatchStatus public status;\n    uint256 public matchStartBlock;\n    uint256 public matchFinishBlock;\n    uint256 public totalDeposits;\n    uint256 public homePointsTrackers;\n    uint256 public drawPointsTrackers;\n    uint256 public awayPointsTrackers;\n    uint256 public homeBets;\n    uint256 public awayBets;\n    uint256 public drawBets;\n    uint256 [] public homePointsAfterBet;\n    uint256 [] public drawPointsAfterBet;\n    uint256 [] public awayPointsAfterBet;\n    mapping(uint => address) public homeBetPlacer;\n    mapping(uint => address) public drawBetPlacer;\n    mapping(uint => address) public awayBetPlacer;\n    mapping(address => uint) public playerBalance;\n    mapping(address => uint) public playerHomePoints;\n    mapping(address => uint) public playerDrawPoints;\n    mapping(address => uint) public playerAwayPoints;\n    enum MatchStatus {OPEN, PAID}\n\n    \n    \n    modifier isOpen() {\n        require(status == MatchStatus.OPEN, 'Match not open');\n        require(block.number < matchStartBlock, 'Cant place bet now');\n        _;\n    }\n\n    modifier isRunning() {\n        require(block.number < matchFinishBlock && block.number > matchStartBlock  , 'Game is running');\n        _;\n    }\n\n    modifier isFinished() {\n        require(block.number > matchFinishBlock  , 'Game is finished');\n        _;\n    }\n\n    modifier isPaid() {\n        require(status == MatchStatus.PAID, 'Match not paid');\n        _;\n    }\n\n    \n    \n     constructor(uint256 _matchStartBlock, uint256 _matchFinishBlock) public {\n        status = MatchStatus.OPEN;\n        matchStartBlock = _matchStartBlock; \n        matchFinishBlock = _matchFinishBlock;\n\n    }\n\n    \n    function placeHomeBet(uint256 amount) internal {\n        uint256 currentBlock = block.number;\n        uint256 points = amount *  (matchStartBlock - currentBlock);\n        playerHomePoints[msg.sender] += points;\n        homePointsTrackers += points;\n        homePointsAfterBet.push(homePointsTrackers);\n        homeBetPlacer[homeBets] = msg.sender;\n        homeBets += 1;\n        \n    }\n\n    function placeDrawBet(uint256 amount) internal {\n        uint256 currentBlock = block.number;\n        uint256 points = amount *  (matchStartBlock - currentBlock);\n        playerDrawPoints[msg.sender] += points;\n        drawPointsTrackers += points;\n        drawPointsAfterBet.push(drawPointsTrackers);\n        drawBetPlacer[homeBets] = msg.sender;\n        drawBets += 1;\n        \n    }\n\n    function placeAwayBet(uint256 amount) internal {\n        uint256 currentBlock = block.number;\n        uint256 points = amount * (matchStartBlock - currentBlock);\n        playerAwayPoints[msg.sender] += points;\n        awayPointsTrackers += points;\n        awayPointsAfterBet.push(awayPointsTrackers) ;\n        awayBetPlacer[awayBets] = msg.sender;\n        awayBets += 1;\n        \n    }\n\n\n    function findHomeWinner() internal returns(address) {\n        uint256 random = random();\n        random = random % homePointsTrackers;\n\n        if(random < homePointsAfterBet[0]) {\n            return homeBetPlacer[0];\n        }\n\n        uint hi = homePointsAfterBet.length-1;\n        uint lo = 0;\n\n        while(lo <= hi) {\n            uint256 mid = lo + (hi-lo)/2;\n            if(random < homePointsAfterBet[mid]){\n                hi = mid-1 ;\n            } else if (random >homePointsAfterBet[mid]) {\n                lo = mid + 1;\n            } else {\n                return homeBetPlacer[mid+1];\n            }\n        }\n        return homeBetPlacer[lo];\n\n    }\n\n    function findDrawWinner() internal returns(address) {\n        uint256 random = random();\n        random = random % drawPointsTrackers;\n\n        if(random < drawPointsAfterBet[0]) {\n            return drawBetPlacer[0];\n        }\n\n        uint hi = drawPointsAfterBet.length-1;\n        uint lo = 0;\n\n        while(lo <= hi) {\n            uint256 mid = lo + (hi-lo)/2;\n            if(random < drawPointsAfterBet[mid]){\n                hi = mid-1 ;\n            } else if (random >drawPointsAfterBet[mid]) {\n                lo = mid + 1;\n            } else {\n                return drawBetPlacer[mid+1];\n            }\n        }\n        return drawBetPlacer[lo];\n\n    }\n\n    function findAwayWinner() internal returns(address) {\n        uint256 random = random();\n        random = random % awayPointsTrackers;\n\n        if(random < awayPointsAfterBet[0]) {\n            return awayBetPlacer[0];\n        }\n\n        uint hi = awayPointsAfterBet.length-1;\n        uint lo = 0;\n\n        while(lo <= hi) {\n            uint256 mid = lo + (hi-lo)/2;\n            if(random < awayPointsAfterBet[mid]){\n                hi = mid-1 ;\n            } else if (random >awayPointsAfterBet[mid]) {\n                lo = mid + 1;\n            } else {\n                return awayBetPlacer[mid+1];\n            }\n        }\n        return awayBetPlacer[lo];\n\n    }\n  \n   \n    function random() private view returns(uint) {\n        return uint(keccak256(abi.encodePacked(block.difficulty, block.timestamp ,totalDeposits, matchStartBlock, matchFinishBlock )));\n    }\n\n    \n  \n\n\n}",
  "sourcePath": "contracts/Lossless.sol",
  "type": "contract"
}