{
  "abi": [
    {
      "inputs": [
        {
          "internalType": "uint256",
          "name": "_matchExpiryBlock",
          "type": "uint256"
        }
      ],
      "stateMutability": "nonpayable",
      "type": "constructor"
    },
    {
      "anonymous": false,
      "inputs": [],
      "name": "OrderExpired",
      "type": "event"
    },
    {
      "anonymous": false,
      "inputs": [
        {
          "indexed": true,
          "internalType": "address",
          "name": "previousOwner",
          "type": "address"
        },
        {
          "indexed": true,
          "internalType": "address",
          "name": "newOwner",
          "type": "address"
        }
      ],
      "name": "OwnershipTransferred",
      "type": "event"
    },
    {
      "inputs": [],
      "name": "awayBets",
      "outputs": [
        {
          "internalType": "uint256",
          "name": "",
          "type": "uint256"
        }
      ],
      "stateMutability": "view",
      "type": "function"
    },
    {
      "inputs": [
        {
          "internalType": "uint256",
          "name": "",
          "type": "uint256"
        }
      ],
      "name": "awayPointsAfterBet",
      "outputs": [
        {
          "internalType": "uint256",
          "name": "",
          "type": "uint256"
        }
      ],
      "stateMutability": "view",
      "type": "function"
    },
    {
      "inputs": [],
      "name": "awayPointsTrackers",
      "outputs": [
        {
          "internalType": "uint256",
          "name": "",
          "type": "uint256"
        }
      ],
      "stateMutability": "view",
      "type": "function"
    },
    {
      "inputs": [],
      "name": "homeBets",
      "outputs": [
        {
          "internalType": "uint256",
          "name": "",
          "type": "uint256"
        }
      ],
      "stateMutability": "view",
      "type": "function"
    },
    {
      "inputs": [
        {
          "internalType": "uint256",
          "name": "",
          "type": "uint256"
        }
      ],
      "name": "homePointsAfterBet",
      "outputs": [
        {
          "internalType": "uint256",
          "name": "",
          "type": "uint256"
        }
      ],
      "stateMutability": "view",
      "type": "function"
    },
    {
      "inputs": [],
      "name": "homePointsTrackers",
      "outputs": [
        {
          "internalType": "uint256",
          "name": "",
          "type": "uint256"
        }
      ],
      "stateMutability": "view",
      "type": "function"
    },
    {
      "inputs": [],
      "name": "matchExpiryBlock",
      "outputs": [
        {
          "internalType": "uint256",
          "name": "",
          "type": "uint256"
        }
      ],
      "stateMutability": "view",
      "type": "function"
    },
    {
      "inputs": [],
      "name": "owner",
      "outputs": [
        {
          "internalType": "address",
          "name": "",
          "type": "address"
        }
      ],
      "stateMutability": "view",
      "type": "function"
    },
    {
      "inputs": [],
      "name": "renounceOwnership",
      "outputs": [],
      "stateMutability": "nonpayable",
      "type": "function"
    },
    {
      "inputs": [],
      "name": "status",
      "outputs": [
        {
          "internalType": "enum Lossless.MatchStatus",
          "name": "",
          "type": "uint8"
        }
      ],
      "stateMutability": "view",
      "type": "function"
    },
    {
      "inputs": [],
      "name": "totalDeposits",
      "outputs": [
        {
          "internalType": "uint256",
          "name": "",
          "type": "uint256"
        }
      ],
      "stateMutability": "view",
      "type": "function"
    },
    {
      "inputs": [
        {
          "internalType": "address",
          "name": "newOwner",
          "type": "address"
        }
      ],
      "name": "transferOwnership",
      "outputs": [],
      "stateMutability": "nonpayable",
      "type": "function"
    }
  ],
  "bytecode": "608060405234801561001057600080fd5b506040516105033803806105038339818101604052602081101561003357600080fd5b5051600061003f61009e565b600080546001600160a01b0319166001600160a01b0383169081178255604051929350917f8be0079c531659141344cd1fd0a4f28419497f9722a3daafe3b4186f6b6457e0908290a3506000805460ff60a01b191690556001556100a2565b3390565b610452806100b16000396000f3fe608060405234801561001057600080fd5b50600436106100b45760003560e01c8063b3db3ced11610071578063b3db3ced1461014f578063bf363c3e1461016c578063c003aef314610174578063c69de2241461017c578063e8eaca7514610184578063f2fde38b1461018c576100b4565b8063200d2ed2146100b957806336201e53146100e2578063715018a6146100fc5780637d882097146101065780638da5cb5b1461010e578063ad9ed66e14610132575b600080fd5b6100c16101b2565b604051808260038111156100d157fe5b815260200191505060405180910390f35b6100ea6101c2565b60408051918252519081900360200190f35b6101046101c8565b005b6100ea610286565b61011661028c565b604080516001600160a01b039092168252519081900360200190f35b6100ea6004803603602081101561014857600080fd5b503561029b565b6100ea6004803603602081101561016557600080fd5b50356102b9565b6100ea6102c6565b6100ea6102cc565b6100ea6102d2565b6100ea6102d8565b610104600480360360208110156101a257600080fd5b50356001600160a01b03166102de565b600054600160a01b900460ff1681565b60035481565b6101d06103f2565b6001600160a01b03166101e161028c565b6001600160a01b03161461023c576040805162461bcd60e51b815260206004820181905260248201527f4f776e61626c653a2063616c6c6572206973206e6f7420746865206f776e6572604482015290519081900360640190fd5b600080546040516001600160a01b03909116907f8be0079c531659141344cd1fd0a4f28419497f9722a3daafe3b4186f6b6457e0908390a3600080546001600160a01b0319169055565b60025481565b6000546001600160a01b031690565b600781815481106102a857fe5b600091825260209091200154905081565b600881815481106102a857fe5b60015481565b60045481565b60065481565b60055481565b6102e66103f2565b6001600160a01b03166102f761028c565b6001600160a01b031614610352576040805162461bcd60e51b815260206004820181905260248201527f4f776e61626c653a2063616c6c6572206973206e6f7420746865206f776e6572604482015290519081900360640190fd5b6001600160a01b0381166103975760405162461bcd60e51b81526004018080602001828103825260268152602001806103f76026913960400191505060405180910390fd5b600080546040516001600160a01b03808516939216917f8be0079c531659141344cd1fd0a4f28419497f9722a3daafe3b4186f6b6457e091a3600080546001600160a01b0319166001600160a01b0392909216919091179055565b339056fe4f776e61626c653a206e6577206f776e657220697320746865207a65726f2061646472657373a2646970667358221220257fc09616b19a44f7dc2e41d0d8631b1b136a755a4ab767962f93aafc72383f64736f6c634300060c0033",
  "bytecodeSha1": "482d17730e5c607112dc333cd4cb92a7fd162a3d",
  "compiler": {
    "evm_version": "istanbul",
    "optimizer": {
      "enabled": true,
      "runs": 200
    },
    "version": "0.6.12+commit.27d51765"
  },
  "contractName": "Lossless",
  "language": "Solidity",
  "natspec": {
    "kind": "dev",
    "methods": {
      "owner()": {
        "details": "Returns the address of the current owner."
      },
      "renounceOwnership()": {
        "details": "Leaves the contract without owner. It will not be possible to call `onlyOwner` functions anymore. Can only be called by the current owner. NOTE: Renouncing ownership will leave the contract without an owner, thereby removing any functionality that is only available to the owner."
      },
      "transferOwnership(address)": {
        "details": "Transfers ownership of the contract to a new account (`newOwner`). Can only be called by the current owner."
      }
    },
    "version": 1
  },
  "opcodes": "PUSH1 0x80 PUSH1 0x40 MSTORE CALLVALUE DUP1 ISZERO PUSH2 0x10 JUMPI PUSH1 0x0 DUP1 REVERT JUMPDEST POP PUSH1 0x4 CALLDATASIZE LT PUSH2 0xB4 JUMPI PUSH1 0x0 CALLDATALOAD PUSH1 0xE0 SHR DUP1 PUSH4 0xB3DB3CED GT PUSH2 0x71 JUMPI DUP1 PUSH4 0xB3DB3CED EQ PUSH2 0x14F JUMPI DUP1 PUSH4 0xBF363C3E EQ PUSH2 0x16C JUMPI DUP1 PUSH4 0xC003AEF3 EQ PUSH2 0x174 JUMPI DUP1 PUSH4 0xC69DE224 EQ PUSH2 0x17C JUMPI DUP1 PUSH4 0xE8EACA75 EQ PUSH2 0x184 JUMPI DUP1 PUSH4 0xF2FDE38B EQ PUSH2 0x18C JUMPI PUSH2 0xB4 JUMP JUMPDEST DUP1 PUSH4 0x200D2ED2 EQ PUSH2 0xB9 JUMPI DUP1 PUSH4 0x36201E53 EQ PUSH2 0xE2 JUMPI DUP1 PUSH4 0x715018A6 EQ PUSH2 0xFC JUMPI DUP1 PUSH4 0x7D882097 EQ PUSH2 0x106 JUMPI DUP1 PUSH4 0x8DA5CB5B EQ PUSH2 0x10E JUMPI DUP1 PUSH4 0xAD9ED66E EQ PUSH2 0x132 JUMPI JUMPDEST PUSH1 0x0 DUP1 REVERT JUMPDEST PUSH2 0xC1 PUSH2 0x1B2 JUMP JUMPDEST PUSH1 0x40 MLOAD DUP1 DUP3 PUSH1 0x3 DUP2 GT ISZERO PUSH2 0xD1 JUMPI INVALID JUMPDEST DUP2 MSTORE PUSH1 0x20 ADD SWAP2 POP POP PUSH1 0x40 MLOAD DUP1 SWAP2 SUB SWAP1 RETURN JUMPDEST PUSH2 0xEA PUSH2 0x1C2 JUMP JUMPDEST PUSH1 0x40 DUP1 MLOAD SWAP2 DUP3 MSTORE MLOAD SWAP1 DUP2 SWAP1 SUB PUSH1 0x20 ADD SWAP1 RETURN JUMPDEST PUSH2 0x104 PUSH2 0x1C8 JUMP JUMPDEST STOP JUMPDEST PUSH2 0xEA PUSH2 0x286 JUMP JUMPDEST PUSH2 0x116 PUSH2 0x28C JUMP JUMPDEST PUSH1 0x40 DUP1 MLOAD PUSH1 0x1 PUSH1 0x1 PUSH1 0xA0 SHL SUB SWAP1 SWAP3 AND DUP3 MSTORE MLOAD SWAP1 DUP2 SWAP1 SUB PUSH1 0x20 ADD SWAP1 RETURN JUMPDEST PUSH2 0xEA PUSH1 0x4 DUP1 CALLDATASIZE SUB PUSH1 0x20 DUP2 LT ISZERO PUSH2 0x148 JUMPI PUSH1 0x0 DUP1 REVERT JUMPDEST POP CALLDATALOAD PUSH2 0x29B JUMP JUMPDEST PUSH2 0xEA PUSH1 0x4 DUP1 CALLDATASIZE SUB PUSH1 0x20 DUP2 LT ISZERO PUSH2 0x165 JUMPI PUSH1 0x0 DUP1 REVERT JUMPDEST POP CALLDATALOAD PUSH2 0x2B9 JUMP JUMPDEST PUSH2 0xEA PUSH2 0x2C6 JUMP JUMPDEST PUSH2 0xEA PUSH2 0x2CC JUMP JUMPDEST PUSH2 0xEA PUSH2 0x2D2 JUMP JUMPDEST PUSH2 0xEA PUSH2 0x2D8 JUMP JUMPDEST PUSH2 0x104 PUSH1 0x4 DUP1 CALLDATASIZE SUB PUSH1 0x20 DUP2 LT ISZERO PUSH2 0x1A2 JUMPI PUSH1 0x0 DUP1 REVERT JUMPDEST POP CALLDATALOAD PUSH1 0x1 PUSH1 0x1 PUSH1 0xA0 SHL SUB AND PUSH2 0x2DE JUMP JUMPDEST PUSH1 0x0 SLOAD PUSH1 0x1 PUSH1 0xA0 SHL SWAP1 DIV PUSH1 0xFF AND DUP2 JUMP JUMPDEST PUSH1 0x3 SLOAD DUP2 JUMP JUMPDEST PUSH2 0x1D0 PUSH2 0x3F2 JUMP JUMPDEST PUSH1 0x1 PUSH1 0x1 PUSH1 0xA0 SHL SUB AND PUSH2 0x1E1 PUSH2 0x28C JUMP JUMPDEST PUSH1 0x1 PUSH1 0x1 PUSH1 0xA0 SHL SUB AND EQ PUSH2 0x23C JUMPI PUSH1 0x40 DUP1 MLOAD PUSH3 0x461BCD PUSH1 0xE5 SHL DUP2 MSTORE PUSH1 0x20 PUSH1 0x4 DUP3 ADD DUP2 SWAP1 MSTORE PUSH1 0x24 DUP3 ADD MSTORE PUSH32 0x4F776E61626C653A2063616C6C6572206973206E6F7420746865206F776E6572 PUSH1 0x44 DUP3 ADD MSTORE SWAP1 MLOAD SWAP1 DUP2 SWAP1 SUB PUSH1 0x64 ADD SWAP1 REVERT JUMPDEST PUSH1 0x0 DUP1 SLOAD PUSH1 0x40 MLOAD PUSH1 0x1 PUSH1 0x1 PUSH1 0xA0 SHL SUB SWAP1 SWAP2 AND SWAP1 PUSH32 0x8BE0079C531659141344CD1FD0A4F28419497F9722A3DAAFE3B4186F6B6457E0 SWAP1 DUP4 SWAP1 LOG3 PUSH1 0x0 DUP1 SLOAD PUSH1 0x1 PUSH1 0x1 PUSH1 0xA0 SHL SUB NOT AND SWAP1 SSTORE JUMP JUMPDEST PUSH1 0x2 SLOAD DUP2 JUMP JUMPDEST PUSH1 0x0 SLOAD PUSH1 0x1 PUSH1 0x1 PUSH1 0xA0 SHL SUB AND SWAP1 JUMP JUMPDEST PUSH1 0x7 DUP2 DUP2 SLOAD DUP2 LT PUSH2 0x2A8 JUMPI INVALID JUMPDEST PUSH1 0x0 SWAP2 DUP3 MSTORE PUSH1 0x20 SWAP1 SWAP2 KECCAK256 ADD SLOAD SWAP1 POP DUP2 JUMP JUMPDEST PUSH1 0x8 DUP2 DUP2 SLOAD DUP2 LT PUSH2 0x2A8 JUMPI INVALID JUMPDEST PUSH1 0x1 SLOAD DUP2 JUMP JUMPDEST PUSH1 0x4 SLOAD DUP2 JUMP JUMPDEST PUSH1 0x6 SLOAD DUP2 JUMP JUMPDEST PUSH1 0x5 SLOAD DUP2 JUMP JUMPDEST PUSH2 0x2E6 PUSH2 0x3F2 JUMP JUMPDEST PUSH1 0x1 PUSH1 0x1 PUSH1 0xA0 SHL SUB AND PUSH2 0x2F7 PUSH2 0x28C JUMP JUMPDEST PUSH1 0x1 PUSH1 0x1 PUSH1 0xA0 SHL SUB AND EQ PUSH2 0x352 JUMPI PUSH1 0x40 DUP1 MLOAD PUSH3 0x461BCD PUSH1 0xE5 SHL DUP2 MSTORE PUSH1 0x20 PUSH1 0x4 DUP3 ADD DUP2 SWAP1 MSTORE PUSH1 0x24 DUP3 ADD MSTORE PUSH32 0x4F776E61626C653A2063616C6C6572206973206E6F7420746865206F776E6572 PUSH1 0x44 DUP3 ADD MSTORE SWAP1 MLOAD SWAP1 DUP2 SWAP1 SUB PUSH1 0x64 ADD SWAP1 REVERT JUMPDEST PUSH1 0x1 PUSH1 0x1 PUSH1 0xA0 SHL SUB DUP2 AND PUSH2 0x397 JUMPI PUSH1 0x40 MLOAD PUSH3 0x461BCD PUSH1 0xE5 SHL DUP2 MSTORE PUSH1 0x4 ADD DUP1 DUP1 PUSH1 0x20 ADD DUP3 DUP2 SUB DUP3 MSTORE PUSH1 0x26 DUP2 MSTORE PUSH1 0x20 ADD DUP1 PUSH2 0x3F7 PUSH1 0x26 SWAP2 CODECOPY PUSH1 0x40 ADD SWAP2 POP POP PUSH1 0x40 MLOAD DUP1 SWAP2 SUB SWAP1 REVERT JUMPDEST PUSH1 0x0 DUP1 SLOAD PUSH1 0x40 MLOAD PUSH1 0x1 PUSH1 0x1 PUSH1 0xA0 SHL SUB DUP1 DUP6 AND SWAP4 SWAP3 AND SWAP2 PUSH32 0x8BE0079C531659141344CD1FD0A4F28419497F9722A3DAAFE3B4186F6B6457E0 SWAP2 LOG3 PUSH1 0x0 DUP1 SLOAD PUSH1 0x1 PUSH1 0x1 PUSH1 0xA0 SHL SUB NOT AND PUSH1 0x1 PUSH1 0x1 PUSH1 0xA0 SHL SUB SWAP3 SWAP1 SWAP3 AND SWAP2 SWAP1 SWAP2 OR SWAP1 SSTORE JUMP JUMPDEST CALLER SWAP1 JUMP INVALID 0x4F PUSH24 0x6E61626C653A206E6577206F776E65722069732074686520 PUSH27 0x65726F2061646472657373A2646970667358221220257FC09616B1 SWAP11 DIFFICULTY 0xF7 0xDC 0x2E COINBASE 0xD0 0xD8 PUSH4 0x1B1B136A PUSH22 0x5A4AB767962F93AAFC72383F64736F6C634300060C00 CALLER ",
  "sha1": "2afc54aee903c65f2dbf86938900642d3959978e",
  "source": "// SPDX-License-Identifier: MIT\n\npragma solidity ^0.6.0;\n\nimport './access/Ownable.sol';\n\n\ncontract Lossless is Ownable  {\n\n    MatchStatus public status;\n    uint256 public matchExpiryBlock;\n    uint256 public totalDeposits;\n    uint256 public homePointsTrackers;\n    uint256 public awayPointsTrackers;\n    uint256 public homeBets;\n    uint256 public awayBets;\n    uint256 [] public homePointsAfterBet;\n    uint256 [] public awayPointsAfterBet;\n    mapping(uint => address) homeBetPlacer;\n    mapping(uint => address) awayBetPlacer;\n    mapping(address => uint) playerBalance;\n    mapping(address => uint) playerHomePoints;\n    mapping(address => uint) playerAwayPoints;\n    enum MatchStatus {OPEN, RUNNING, FINISHED, PAID}\n\n    \n    event OrderExpired( );\n    \n    modifier isOpen() {\n        require(status == MatchStatus.OPEN, 'Match not open');\n        require(block.number < matchExpiryBlock, 'Cant place bet now');\n        _;\n    }\n\n    modifier isFinished() {\n        require(status == MatchStatus.FINISHED, 'Match not finished');\n        _;\n    }\n\n    modifier isPaid() {\n        require(status == MatchStatus.PAID, 'Match not paid');\n        _;\n    }\n    \n     constructor(uint256 _matchExpiryBlock) public {\n        status = MatchStatus.OPEN;\n        matchExpiryBlock = _matchExpiryBlock; // to use later\n\n    }\n\n    \n    function placeHomeBet(uint256 amount) internal {\n        uint256 currentBlock = block.number;\n        uint256 points = amount *  (matchExpiryBlock - currentBlock);\n        playerHomePoints[msg.sender] += points;\n        homePointsTrackers += points;\n        homePointsAfterBet[homeBets] = homePointsTrackers;\n        homeBetPlacer[homeBets] = msg.sender;\n        homeBets += 1;\n        \n    }\n\n    function placeAwayBet(uint256 amount) internal {\n        uint256 currentBlock = block.number;\n        uint256 points = amount * (matchExpiryBlock - currentBlock);\n        playerAwayPoints[msg.sender] += points;\n        awayPointsTrackers += points;\n        awayPointsAfterBet[awayBets] = awayPointsTrackers;\n        awayBetPlacer[awayBets] = msg.sender;\n        awayBets += 1;\n        \n    }\n\n\n    function findHomeWinner() internal returns(address) {\n        uint256 random = random();\n        random = random % homePointsTrackers;\n\n        if(random < homePointsAfterBet[0]) {\n            return homeBetPlacer[0];\n        }\n\n        uint hi = homePointsAfterBet.length-1;\n        uint lo = 1;\n\n        while(lo <= hi) {\n            uint256 mid = lo + (hi-lo)/2;\n            if(random < homePointsAfterBet[mid]){\n                hi = mid-1 ;\n            } else if (random >homePointsAfterBet[mid]) {\n                lo = mid + 1;\n            } else {\n                return homeBetPlacer[mid+1];\n            }\n        }\n        return homeBetPlacer[lo];\n\n    }\n\n    function findAwayWinner() internal returns(address) {\n        uint256 random = random();\n        random = random % awayPointsTrackers;\n\n        if(random < awayPointsAfterBet[0]) {\n            return awayBetPlacer[0];\n        }\n\n        uint hi = awayPointsAfterBet.length-1;\n        uint lo = 1;\n\n        while(lo <= hi) {\n            uint256 mid = lo + (hi-lo)/2;\n            if(random < awayPointsAfterBet[mid]){\n                hi = mid-1 ;\n            } else if (random >awayPointsAfterBet[mid]) {\n                lo = mid + 1;\n            } else {\n                return awayBetPlacer[mid+1];\n            }\n        }\n        return awayBetPlacer[lo];\n\n    }\n  \n   \n    function random() private view returns(uint) {\n        return uint(keccak256(abi.encodePacked(block.difficulty, block.timestamp ,totalDeposits )));\n    }\n\n    \n  \n\n\n}",
  "sourcePath": "contracts/Lossless.sol",
  "type": "contract"
}